{
	"Project Candidate/Candidate.sol": {
		"Voting": {
			"abi": [
				{
					"inputs": [],
					"stateMutability": "nonpayable",
					"type": "constructor"
				},
				{
					"inputs": [
						{
							"internalType": "string",
							"name": "_name",
							"type": "string"
						}
					],
					"name": "addCandidate",
					"outputs": [],
					"stateMutability": "nonpayable",
					"type": "function"
				},
				{
					"inputs": [
						{
							"internalType": "uint256",
							"name": "",
							"type": "uint256"
						}
					],
					"name": "candidates",
					"outputs": [
						{
							"internalType": "string",
							"name": "name",
							"type": "string"
						},
						{
							"internalType": "uint256",
							"name": "voteCount",
							"type": "uint256"
						}
					],
					"stateMutability": "view",
					"type": "function"
				},
				{
					"inputs": [],
					"name": "endVoting",
					"outputs": [],
					"stateMutability": "nonpayable",
					"type": "function"
				},
				{
					"inputs": [],
					"name": "getCandidateCount",
					"outputs": [
						{
							"internalType": "uint256",
							"name": "",
							"type": "uint256"
						}
					],
					"stateMutability": "view",
					"type": "function"
				},
				{
					"inputs": [],
					"name": "getCandidateList",
					"outputs": [
						{
							"internalType": "string[]",
							"name": "",
							"type": "string[]"
						}
					],
					"stateMutability": "view",
					"type": "function"
				},
				{
					"inputs": [],
					"name": "getCandidates",
					"outputs": [
						{
							"components": [
								{
									"internalType": "string",
									"name": "name",
									"type": "string"
								},
								{
									"internalType": "uint256",
									"name": "voteCount",
									"type": "uint256"
								}
							],
							"internalType": "struct Voting.Candidate[]",
							"name": "",
							"type": "tuple[]"
						}
					],
					"stateMutability": "view",
					"type": "function"
				},
				{
					"inputs": [],
					"name": "getWinner",
					"outputs": [
						{
							"internalType": "string",
							"name": "winnerName",
							"type": "string"
						},
						{
							"internalType": "uint256",
							"name": "maxVotes",
							"type": "uint256"
						}
					],
					"stateMutability": "view",
					"type": "function"
				},
				{
					"inputs": [
						{
							"internalType": "address",
							"name": "",
							"type": "address"
						}
					],
					"name": "hasVoted",
					"outputs": [
						{
							"internalType": "bool",
							"name": "",
							"type": "bool"
						}
					],
					"stateMutability": "view",
					"type": "function"
				},
				{
					"inputs": [],
					"name": "owner",
					"outputs": [
						{
							"internalType": "address",
							"name": "",
							"type": "address"
						}
					],
					"stateMutability": "view",
					"type": "function"
				},
				{
					"inputs": [],
					"name": "startVoting",
					"outputs": [],
					"stateMutability": "nonpayable",
					"type": "function"
				},
				{
					"inputs": [
						{
							"internalType": "uint256",
							"name": "_candidateIndex",
							"type": "uint256"
						}
					],
					"name": "vote",
					"outputs": [],
					"stateMutability": "nonpayable",
					"type": "function"
				},
				{
					"inputs": [],
					"name": "votingActive",
					"outputs": [
						{
							"internalType": "bool",
							"name": "",
							"type": "bool"
						}
					],
					"stateMutability": "view",
					"type": "function"
				}
			],
			"devdoc": {
				"kind": "dev",
				"methods": {},
				"version": 1
			},
			"evm": {
				"assembly": "    /* \"Project Candidate/Candidate.sol\":60:2693  contract Voting {\r... */\n  mstore(0x40, 0x80)\n    /* \"Project Candidate/Candidate.sol\":528:579  constructor() {\r... */\n  callvalue\n  dup1\n  iszero\n  tag_1\n  jumpi\n  0x00\n  dup1\n  revert\ntag_1:\n  pop\n    /* \"Project Candidate/Candidate.sol\":561:571  msg.sender */\n  caller\n    /* \"Project Candidate/Candidate.sol\":553:558  owner */\n  0x00\n  dup1\n    /* \"Project Candidate/Candidate.sol\":553:571  owner = msg.sender */\n  0x0100\n  exp\n  dup2\n  sload\n  dup2\n  0xffffffffffffffffffffffffffffffffffffffff\n  mul\n  not\n  and\n  swap1\n  dup4\n  0xffffffffffffffffffffffffffffffffffffffff\n  and\n  mul\n  or\n  swap1\n  sstore\n  pop\n    /* \"Project Candidate/Candidate.sol\":60:2693  contract Voting {\r... */\n  dataSize(sub_0)\n  dup1\n  dataOffset(sub_0)\n  0x00\n  codecopy\n  0x00\n  return\nstop\n\nsub_0: assembly {\n        /* \"Project Candidate/Candidate.sol\":60:2693  contract Voting {\r... */\n      mstore(0x40, 0x80)\n      callvalue\n      dup1\n      iszero\n      tag_1\n      jumpi\n      0x00\n      dup1\n      revert\n    tag_1:\n      pop\n      jumpi(tag_2, lt(calldatasize, 0x04))\n      shr(0xe0, calldataload(0x00))\n      dup1\n      0x408e2727\n      gt\n      tag_15\n      jumpi\n      dup1\n      0x408e2727\n      eq\n      tag_9\n      jumpi\n      dup1\n      0x462e91ec\n      eq\n      tag_10\n      jumpi\n      dup1\n      0x8da5cb5b\n      eq\n      tag_11\n      jumpi\n      dup1\n      0x8e7ea5b2\n      eq\n      tag_12\n      jumpi\n      dup1\n      0xc3403ddf\n      eq\n      tag_13\n      jumpi\n      dup1\n      0xfdbc4006\n      eq\n      tag_14\n      jumpi\n      jump(tag_2)\n    tag_15:\n      dup1\n      0x0121b93f\n      eq\n      tag_3\n      jumpi\n      dup1\n      0x06a49fce\n      eq\n      tag_4\n      jumpi\n      dup1\n      0x09eef43e\n      eq\n      tag_5\n      jumpi\n      dup1\n      0x1ec6b60a\n      eq\n      tag_6\n      jumpi\n      dup1\n      0x30a56347\n      eq\n      tag_7\n      jumpi\n      dup1\n      0x3477ee2e\n      eq\n      tag_8\n      jumpi\n    tag_2:\n      0x00\n      dup1\n      revert\n        /* \"Project Candidate/Candidate.sol\":1070:1363  function vote(uint _candidateIndex) public votingIsActive {\r... */\n    tag_3:\n      tag_16\n      0x04\n      dup1\n      calldatasize\n      sub\n      dup2\n      add\n      swap1\n      tag_17\n      swap2\n      swap1\n      tag_18\n      jump\t// in\n    tag_17:\n      tag_19\n      jump\t// in\n    tag_16:\n      stop\n        /* \"Project Candidate/Candidate.sol\":1844:1946  function getCandidates() public view returns (Candidate[] memory) {\r... */\n    tag_4:\n      tag_20\n      tag_21\n      jump\t// in\n    tag_20:\n      mload(0x40)\n      tag_22\n      swap2\n      swap1\n      tag_23\n      jump\t// in\n    tag_22:\n      mload(0x40)\n      dup1\n      swap2\n      sub\n      swap1\n      return\n        /* \"Project Candidate/Candidate.sol\":259:299  mapping(address => bool) public hasVoted */\n    tag_5:\n      tag_24\n      0x04\n      dup1\n      calldatasize\n      sub\n      dup2\n      add\n      swap1\n      tag_25\n      swap2\n      swap1\n      tag_26\n      jump\t// in\n    tag_25:\n      tag_27\n      jump\t// in\n    tag_24:\n      mload(0x40)\n      tag_28\n      swap2\n      swap1\n      tag_29\n      jump\t// in\n    tag_28:\n      mload(0x40)\n      dup1\n      swap2\n      sub\n      swap1\n      return\n        /* \"Project Candidate/Candidate.sol\":803:881  function startVoting() public onlyOwner {\r... */\n    tag_6:\n      tag_30\n      tag_31\n      jump\t// in\n    tag_30:\n      stop\n        /* \"Project Candidate/Candidate.sol\":2011:2110  function getCandidateCount() public view returns (uint) {\r... */\n    tag_7:\n      tag_32\n      tag_33\n      jump\t// in\n    tag_32:\n      mload(0x40)\n      tag_34\n      swap2\n      swap1\n      tag_35\n      jump\t// in\n    tag_34:\n      mload(0x40)\n      dup1\n      swap2\n      sub\n      swap1\n      return\n        /* \"Project Candidate/Candidate.sol\":223:252  Candidate[] public candidates */\n    tag_8:\n      tag_36\n      0x04\n      dup1\n      calldatasize\n      sub\n      dup2\n      add\n      swap1\n      tag_37\n      swap2\n      swap1\n      tag_18\n      jump\t// in\n    tag_37:\n      tag_38\n      jump\t// in\n    tag_36:\n      mload(0x40)\n      tag_39\n      swap3\n      swap2\n      swap1\n      tag_40\n      jump\t// in\n    tag_39:\n      mload(0x40)\n      dup1\n      swap2\n      sub\n      swap1\n      return\n        /* \"Project Candidate/Candidate.sol\":110:134  bool public votingActive */\n    tag_9:\n      tag_41\n      tag_42\n      jump\t// in\n    tag_41:\n      mload(0x40)\n      tag_43\n      swap2\n      swap1\n      tag_29\n      jump\t// in\n    tag_43:\n      mload(0x40)\n      dup1\n      swap2\n      sub\n      swap1\n      return\n        /* \"Project Candidate/Candidate.sol\":635:750  function addCandidate(string memory _name) public onlyOwner {\r... */\n    tag_10:\n      tag_44\n      0x04\n      dup1\n      calldatasize\n      sub\n      dup2\n      add\n      swap1\n      tag_45\n      swap2\n      swap1\n      tag_46\n      jump\t// in\n    tag_45:\n      tag_47\n      jump\t// in\n    tag_44:\n      stop\n        /* \"Project Candidate/Candidate.sol\":83:103  address public owner */\n    tag_11:\n      tag_48\n      tag_49\n      jump\t// in\n    tag_48:\n      mload(0x40)\n      tag_50\n      swap2\n      swap1\n      tag_51\n      jump\t// in\n    tag_50:\n      mload(0x40)\n      dup1\n      swap2\n      sub\n      swap1\n      return\n        /* \"Project Candidate/Candidate.sol\":2151:2690  function getWinner() public view returns (string memory winnerName, uint maxVotes) {\r... */\n    tag_12:\n      tag_52\n      tag_53\n      jump\t// in\n    tag_52:\n      mload(0x40)\n      tag_54\n      swap3\n      swap2\n      swap1\n      tag_40\n      jump\t// in\n    tag_54:\n      mload(0x40)\n      dup1\n      swap2\n      sub\n      swap1\n      return\n        /* \"Project Candidate/Candidate.sol\":931:1008  function endVoting() public onlyOwner {\r... */\n    tag_13:\n      tag_55\n      tag_56\n      jump\t// in\n    tag_55:\n      stop\n        /* \"Project Candidate/Candidate.sol\":1503:1753  function getCandidateList() public view returns (string[] memory) {\r... */\n    tag_14:\n      tag_57\n      tag_58\n      jump\t// in\n    tag_57:\n      mload(0x40)\n      tag_59\n      swap2\n      swap1\n      tag_60\n      jump\t// in\n    tag_59:\n      mload(0x40)\n      dup1\n      swap2\n      sub\n      swap1\n      return\n        /* \"Project Candidate/Candidate.sol\":1070:1363  function vote(uint _candidateIndex) public votingIsActive {\r... */\n    tag_19:\n        /* \"Project Candidate/Candidate.sol\":463:475  votingActive */\n      0x00\n      0x14\n      swap1\n      sload\n      swap1\n      0x0100\n      exp\n      swap1\n      div\n      0xff\n      and\n        /* \"Project Candidate/Candidate.sol\":455:500  require(votingActive, \"Voting is not active\") */\n      tag_62\n      jumpi\n      mload(0x40)\n      0x08c379a000000000000000000000000000000000000000000000000000000000\n      dup2\n      mstore\n      0x04\n      add\n      tag_63\n      swap1\n      tag_64\n      jump\t// in\n    tag_63:\n      mload(0x40)\n      dup1\n      swap2\n      sub\n      swap1\n      revert\n    tag_62:\n        /* \"Project Candidate/Candidate.sol\":1148:1156  hasVoted */\n      0x02\n        /* \"Project Candidate/Candidate.sol\":1148:1168  hasVoted[msg.sender] */\n      0x00\n        /* \"Project Candidate/Candidate.sol\":1157:1167  msg.sender */\n      caller\n        /* \"Project Candidate/Candidate.sol\":1148:1168  hasVoted[msg.sender] */\n      0xffffffffffffffffffffffffffffffffffffffff\n      and\n      0xffffffffffffffffffffffffffffffffffffffff\n      and\n      dup2\n      mstore\n      0x20\n      add\n      swap1\n      dup2\n      mstore\n      0x20\n      add\n      0x00\n      keccak256\n      0x00\n      swap1\n      sload\n      swap1\n      0x0100\n      exp\n      swap1\n      div\n      0xff\n      and\n        /* \"Project Candidate/Candidate.sol\":1147:1168  !hasVoted[msg.sender] */\n      iszero\n        /* \"Project Candidate/Candidate.sol\":1139:1186  require(!hasVoted[msg.sender], \"Already voted\") */\n      tag_66\n      jumpi\n      mload(0x40)\n      0x08c379a000000000000000000000000000000000000000000000000000000000\n      dup2\n      mstore\n      0x04\n      add\n      tag_67\n      swap1\n      tag_68\n      jump\t// in\n    tag_67:\n      mload(0x40)\n      dup1\n      swap2\n      sub\n      swap1\n      revert\n    tag_66:\n        /* \"Project Candidate/Candidate.sol\":1223:1233  candidates */\n      0x01\n        /* \"Project Candidate/Candidate.sol\":1223:1240  candidates.length */\n      dup1\n      sload\n      swap1\n      pop\n        /* \"Project Candidate/Candidate.sol\":1205:1220  _candidateIndex */\n      dup2\n        /* \"Project Candidate/Candidate.sol\":1205:1240  _candidateIndex < candidates.length */\n      lt\n        /* \"Project Candidate/Candidate.sol\":1197:1262  require(_candidateIndex < candidates.length, \"Invalid candidate\") */\n      tag_69\n      jumpi\n      mload(0x40)\n      0x08c379a000000000000000000000000000000000000000000000000000000000\n      dup2\n      mstore\n      0x04\n      add\n      tag_70\n      swap1\n      tag_71\n      jump\t// in\n    tag_70:\n      mload(0x40)\n      dup1\n      swap2\n      sub\n      swap1\n      revert\n    tag_69:\n        /* \"Project Candidate/Candidate.sol\":1316:1317  1 */\n      0x01\n        /* \"Project Candidate/Candidate.sol\":1275:1285  candidates */\n      dup1\n        /* \"Project Candidate/Candidate.sol\":1286:1301  _candidateIndex */\n      dup3\n        /* \"Project Candidate/Candidate.sol\":1275:1302  candidates[_candidateIndex] */\n      dup2\n      sload\n      dup2\n      lt\n      tag_72\n      jumpi\n      mstore(0x00, 0x4e487b7100000000000000000000000000000000000000000000000000000000)\n      mstore(0x04, 0x32)\n      revert(0x00, 0x24)\n    tag_72:\n      swap1\n      0x00\n      mstore\n      keccak256(0x00, 0x20)\n      swap1\n      0x02\n      mul\n      add\n        /* \"Project Candidate/Candidate.sol\":1275:1312  candidates[_candidateIndex].voteCount */\n      0x01\n      add\n      0x00\n        /* \"Project Candidate/Candidate.sol\":1275:1317  candidates[_candidateIndex].voteCount += 1 */\n      dup3\n      dup3\n      sload\n      tag_74\n      swap2\n      swap1\n      tag_75\n      jump\t// in\n    tag_74:\n      swap3\n      pop\n      pop\n      dup2\n      swap1\n      sstore\n      pop\n        /* \"Project Candidate/Candidate.sol\":1351:1355  true */\n      0x01\n        /* \"Project Candidate/Candidate.sol\":1328:1336  hasVoted */\n      0x02\n        /* \"Project Candidate/Candidate.sol\":1328:1348  hasVoted[msg.sender] */\n      0x00\n        /* \"Project Candidate/Candidate.sol\":1337:1347  msg.sender */\n      caller\n        /* \"Project Candidate/Candidate.sol\":1328:1348  hasVoted[msg.sender] */\n      0xffffffffffffffffffffffffffffffffffffffff\n      and\n      0xffffffffffffffffffffffffffffffffffffffff\n      and\n      dup2\n      mstore\n      0x20\n      add\n      swap1\n      dup2\n      mstore\n      0x20\n      add\n      0x00\n      keccak256\n      0x00\n        /* \"Project Candidate/Candidate.sol\":1328:1355  hasVoted[msg.sender] = true */\n      0x0100\n      exp\n      dup2\n      sload\n      dup2\n      0xff\n      mul\n      not\n      and\n      swap1\n      dup4\n      iszero\n      iszero\n      mul\n      or\n      swap1\n      sstore\n      pop\n        /* \"Project Candidate/Candidate.sol\":1070:1363  function vote(uint _candidateIndex) public votingIsActive {\r... */\n      pop\n      jump\t// out\n        /* \"Project Candidate/Candidate.sol\":1844:1946  function getCandidates() public view returns (Candidate[] memory) {\r... */\n    tag_21:\n        /* \"Project Candidate/Candidate.sol\":1890:1908  Candidate[] memory */\n      0x60\n        /* \"Project Candidate/Candidate.sol\":1928:1938  candidates */\n      0x01\n        /* \"Project Candidate/Candidate.sol\":1921:1938  return candidates */\n      dup1\n      sload\n      dup1\n      0x20\n      mul\n      0x20\n      add\n      mload(0x40)\n      swap1\n      dup2\n      add\n      0x40\n      mstore\n      dup1\n      swap3\n      swap2\n      swap1\n      dup2\n      dup2\n      mstore\n      0x20\n      add\n      0x00\n      swap1\n    tag_77:\n      dup3\n      dup3\n      lt\n      iszero\n      tag_78\n      jumpi\n      dup4\n      dup3\n      swap1\n      0x00\n      mstore\n      keccak256(0x00, 0x20)\n      swap1\n      0x02\n      mul\n      add\n      mload(0x40)\n      dup1\n      0x40\n      add\n      0x40\n      mstore\n      swap1\n      dup2\n      0x00\n      dup3\n      add\n      dup1\n      sload\n      tag_80\n      swap1\n      tag_81\n      jump\t// in\n    tag_80:\n      dup1\n      0x1f\n      add\n      0x20\n      dup1\n      swap2\n      div\n      mul\n      0x20\n      add\n      mload(0x40)\n      swap1\n      dup2\n      add\n      0x40\n      mstore\n      dup1\n      swap3\n      swap2\n      swap1\n      dup2\n      dup2\n      mstore\n      0x20\n      add\n      dup3\n      dup1\n      sload\n      tag_82\n      swap1\n      tag_81\n      jump\t// in\n    tag_82:\n      dup1\n      iszero\n      tag_83\n      jumpi\n      dup1\n      0x1f\n      lt\n      tag_84\n      jumpi\n      0x0100\n      dup1\n      dup4\n      sload\n      div\n      mul\n      dup4\n      mstore\n      swap2\n      0x20\n      add\n      swap2\n      jump(tag_83)\n    tag_84:\n      dup3\n      add\n      swap2\n      swap1\n      0x00\n      mstore\n      keccak256(0x00, 0x20)\n      swap1\n    tag_85:\n      dup2\n      sload\n      dup2\n      mstore\n      swap1\n      0x01\n      add\n      swap1\n      0x20\n      add\n      dup1\n      dup4\n      gt\n      tag_85\n      jumpi\n      dup3\n      swap1\n      sub\n      0x1f\n      and\n      dup3\n      add\n      swap2\n    tag_83:\n      pop\n      pop\n      pop\n      pop\n      pop\n      dup2\n      mstore\n      0x20\n      add\n      0x01\n      dup3\n      add\n      sload\n      dup2\n      mstore\n      pop\n      pop\n      dup2\n      mstore\n      0x20\n      add\n      swap1\n      0x01\n      add\n      swap1\n      jump(tag_77)\n    tag_78:\n      pop\n      pop\n      pop\n      pop\n      swap1\n      pop\n        /* \"Project Candidate/Candidate.sol\":1844:1946  function getCandidates() public view returns (Candidate[] memory) {\r... */\n      swap1\n      jump\t// out\n        /* \"Project Candidate/Candidate.sol\":259:299  mapping(address => bool) public hasVoted */\n    tag_27:\n      mstore(0x20, 0x02)\n      dup1\n      0x00\n      mstore\n      keccak256(0x00, 0x40)\n      0x00\n      swap2\n      pop\n      sload\n      swap1\n      0x0100\n      exp\n      swap1\n      div\n      0xff\n      and\n      dup2\n      jump\t// out\n        /* \"Project Candidate/Candidate.sol\":803:881  function startVoting() public onlyOwner {\r... */\n    tag_31:\n        /* \"Project Candidate/Candidate.sol\":362:367  owner */\n      0x00\n      dup1\n      sload\n      swap1\n      0x0100\n      exp\n      swap1\n      div\n      0xffffffffffffffffffffffffffffffffffffffff\n      and\n        /* \"Project Candidate/Candidate.sol\":348:367  msg.sender == owner */\n      0xffffffffffffffffffffffffffffffffffffffff\n      and\n        /* \"Project Candidate/Candidate.sol\":348:358  msg.sender */\n      caller\n        /* \"Project Candidate/Candidate.sol\":348:367  msg.sender == owner */\n      0xffffffffffffffffffffffffffffffffffffffff\n      and\n      eq\n        /* \"Project Candidate/Candidate.sol\":340:390  require(msg.sender == owner, \"Not contract owner\") */\n      tag_87\n      jumpi\n      mload(0x40)\n      0x08c379a000000000000000000000000000000000000000000000000000000000\n      dup2\n      mstore\n      0x04\n      add\n      tag_88\n      swap1\n      tag_89\n      jump\t// in\n    tag_88:\n      mload(0x40)\n      dup1\n      swap2\n      sub\n      swap1\n      revert\n    tag_87:\n        /* \"Project Candidate/Candidate.sol\":869:873  true */\n      0x01\n        /* \"Project Candidate/Candidate.sol\":854:866  votingActive */\n      0x00\n      0x14\n        /* \"Project Candidate/Candidate.sol\":854:873  votingActive = true */\n      0x0100\n      exp\n      dup2\n      sload\n      dup2\n      0xff\n      mul\n      not\n      and\n      swap1\n      dup4\n      iszero\n      iszero\n      mul\n      or\n      swap1\n      sstore\n      pop\n        /* \"Project Candidate/Candidate.sol\":803:881  function startVoting() public onlyOwner {\r... */\n      jump\t// out\n        /* \"Project Candidate/Candidate.sol\":2011:2110  function getCandidateCount() public view returns (uint) {\r... */\n    tag_33:\n        /* \"Project Candidate/Candidate.sol\":2061:2065  uint */\n      0x00\n        /* \"Project Candidate/Candidate.sol\":2085:2095  candidates */\n      0x01\n        /* \"Project Candidate/Candidate.sol\":2085:2102  candidates.length */\n      dup1\n      sload\n      swap1\n      pop\n        /* \"Project Candidate/Candidate.sol\":2078:2102  return candidates.length */\n      swap1\n      pop\n        /* \"Project Candidate/Candidate.sol\":2011:2110  function getCandidateCount() public view returns (uint) {\r... */\n      swap1\n      jump\t// out\n        /* \"Project Candidate/Candidate.sol\":223:252  Candidate[] public candidates */\n    tag_38:\n      0x01\n      dup2\n      dup2\n      sload\n      dup2\n      lt\n      tag_92\n      jumpi\n      0x00\n      dup1\n      revert\n    tag_92:\n      swap1\n      0x00\n      mstore\n      keccak256(0x00, 0x20)\n      swap1\n      0x02\n      mul\n      add\n      0x00\n      swap2\n      pop\n      swap1\n      pop\n      dup1\n      0x00\n      add\n      dup1\n      sload\n      tag_94\n      swap1\n      tag_81\n      jump\t// in\n    tag_94:\n      dup1\n      0x1f\n      add\n      0x20\n      dup1\n      swap2\n      div\n      mul\n      0x20\n      add\n      mload(0x40)\n      swap1\n      dup2\n      add\n      0x40\n      mstore\n      dup1\n      swap3\n      swap2\n      swap1\n      dup2\n      dup2\n      mstore\n      0x20\n      add\n      dup3\n      dup1\n      sload\n      tag_95\n      swap1\n      tag_81\n      jump\t// in\n    tag_95:\n      dup1\n      iszero\n      tag_96\n      jumpi\n      dup1\n      0x1f\n      lt\n      tag_97\n      jumpi\n      0x0100\n      dup1\n      dup4\n      sload\n      div\n      mul\n      dup4\n      mstore\n      swap2\n      0x20\n      add\n      swap2\n      jump(tag_96)\n    tag_97:\n      dup3\n      add\n      swap2\n      swap1\n      0x00\n      mstore\n      keccak256(0x00, 0x20)\n      swap1\n    tag_98:\n      dup2\n      sload\n      dup2\n      mstore\n      swap1\n      0x01\n      add\n      swap1\n      0x20\n      add\n      dup1\n      dup4\n      gt\n      tag_98\n      jumpi\n      dup3\n      swap1\n      sub\n      0x1f\n      and\n      dup3\n      add\n      swap2\n    tag_96:\n      pop\n      pop\n      pop\n      pop\n      pop\n      swap1\n      dup1\n      0x01\n      add\n      sload\n      swap1\n      pop\n      dup3\n      jump\t// out\n        /* \"Project Candidate/Candidate.sol\":110:134  bool public votingActive */\n    tag_42:\n      0x00\n      0x14\n      swap1\n      sload\n      swap1\n      0x0100\n      exp\n      swap1\n      div\n      0xff\n      and\n      dup2\n      jump\t// out\n        /* \"Project Candidate/Candidate.sol\":635:750  function addCandidate(string memory _name) public onlyOwner {\r... */\n    tag_47:\n        /* \"Project Candidate/Candidate.sol\":362:367  owner */\n      0x00\n      dup1\n      sload\n      swap1\n      0x0100\n      exp\n      swap1\n      div\n      0xffffffffffffffffffffffffffffffffffffffff\n      and\n        /* \"Project Candidate/Candidate.sol\":348:367  msg.sender == owner */\n      0xffffffffffffffffffffffffffffffffffffffff\n      and\n        /* \"Project Candidate/Candidate.sol\":348:358  msg.sender */\n      caller\n        /* \"Project Candidate/Candidate.sol\":348:367  msg.sender == owner */\n      0xffffffffffffffffffffffffffffffffffffffff\n      and\n      eq\n        /* \"Project Candidate/Candidate.sol\":340:390  require(msg.sender == owner, \"Not contract owner\") */\n      tag_100\n      jumpi\n      mload(0x40)\n      0x08c379a000000000000000000000000000000000000000000000000000000000\n      dup2\n      mstore\n      0x04\n      add\n      tag_101\n      swap1\n      tag_89\n      jump\t// in\n    tag_101:\n      mload(0x40)\n      dup1\n      swap2\n      sub\n      swap1\n      revert\n    tag_100:\n        /* \"Project Candidate/Candidate.sol\":706:716  candidates */\n      0x01\n        /* \"Project Candidate/Candidate.sol\":722:741  Candidate(_name, 0) */\n      mload(0x40)\n      dup1\n      0x40\n      add\n      0x40\n      mstore\n      dup1\n        /* \"Project Candidate/Candidate.sol\":732:737  _name */\n      dup4\n        /* \"Project Candidate/Candidate.sol\":722:741  Candidate(_name, 0) */\n      dup2\n      mstore\n      0x20\n      add\n        /* \"Project Candidate/Candidate.sol\":739:740  0 */\n      0x00\n        /* \"Project Candidate/Candidate.sol\":722:741  Candidate(_name, 0) */\n      dup2\n      mstore\n      pop\n        /* \"Project Candidate/Candidate.sol\":706:742  candidates.push(Candidate(_name, 0)) */\n      swap1\n      dup1\n      0x01\n      dup2\n      sload\n      add\n      dup1\n      dup3\n      sstore\n      dup1\n      swap2\n      pop\n      pop\n      0x01\n      swap1\n      sub\n      swap1\n      0x00\n      mstore\n      keccak256(0x00, 0x20)\n      swap1\n      0x02\n      mul\n      add\n      0x00\n      swap1\n      swap2\n      swap1\n      swap2\n      swap1\n      swap2\n      pop\n      0x00\n      dup3\n      add\n      mload\n      dup2\n      0x00\n      add\n      swap1\n      dup1\n      mload\n      swap1\n      0x20\n      add\n      swap1\n      tag_104\n      swap3\n      swap2\n      swap1\n      tag_105\n      jump\t// in\n    tag_104:\n      pop\n      0x20\n      dup3\n      add\n      mload\n      dup2\n      0x01\n      add\n      sstore\n      pop\n      pop\n        /* \"Project Candidate/Candidate.sol\":635:750  function addCandidate(string memory _name) public onlyOwner {\r... */\n      pop\n      jump\t// out\n        /* \"Project Candidate/Candidate.sol\":83:103  address public owner */\n    tag_49:\n      0x00\n      dup1\n      sload\n      swap1\n      0x0100\n      exp\n      swap1\n      div\n      0xffffffffffffffffffffffffffffffffffffffff\n      and\n      dup2\n      jump\t// out\n        /* \"Project Candidate/Candidate.sol\":2151:2690  function getWinner() public view returns (string memory winnerName, uint maxVotes) {\r... */\n    tag_53:\n        /* \"Project Candidate/Candidate.sol\":2193:2217  string memory winnerName */\n      0x60\n        /* \"Project Candidate/Candidate.sol\":2219:2232  uint maxVotes */\n      0x00\n        /* \"Project Candidate/Candidate.sol\":2254:2266  votingActive */\n      dup1\n      0x14\n      swap1\n      sload\n      swap1\n      0x0100\n      exp\n      swap1\n      div\n      0xff\n      and\n        /* \"Project Candidate/Candidate.sol\":2253:2266  !votingActive */\n      iszero\n        /* \"Project Candidate/Candidate.sol\":2245:2290  require(!votingActive, \"Voting still active\") */\n      tag_107\n      jumpi\n      mload(0x40)\n      0x08c379a000000000000000000000000000000000000000000000000000000000\n      dup2\n      mstore\n      0x04\n      add\n      tag_108\n      swap1\n      tag_109\n      jump\t// in\n    tag_108:\n      mload(0x40)\n      dup1\n      swap2\n      sub\n      swap1\n      revert\n    tag_107:\n        /* \"Project Candidate/Candidate.sol\":2303:2324  uint winningVoteCount */\n      0x00\n        /* \"Project Candidate/Candidate.sol\":2339:2355  uint winnerIndex */\n      dup1\n        /* \"Project Candidate/Candidate.sol\":2373:2379  uint i */\n      dup1\n        /* \"Project Candidate/Candidate.sol\":2382:2383  0 */\n      0x00\n        /* \"Project Candidate/Candidate.sol\":2373:2383  uint i = 0 */\n      swap1\n      pop\n        /* \"Project Candidate/Candidate.sol\":2368:2598  for (uint i = 0; i < candidates.length; i++) {\r... */\n    tag_110:\n        /* \"Project Candidate/Candidate.sol\":2389:2399  candidates */\n      0x01\n        /* \"Project Candidate/Candidate.sol\":2389:2406  candidates.length */\n      dup1\n      sload\n      swap1\n      pop\n        /* \"Project Candidate/Candidate.sol\":2385:2386  i */\n      dup2\n        /* \"Project Candidate/Candidate.sol\":2385:2406  i < candidates.length */\n      lt\n        /* \"Project Candidate/Candidate.sol\":2368:2598  for (uint i = 0; i < candidates.length; i++) {\r... */\n      iszero\n      tag_111\n      jumpi\n        /* \"Project Candidate/Candidate.sol\":2458:2474  winningVoteCount */\n      dup3\n        /* \"Project Candidate/Candidate.sol\":2432:2442  candidates */\n      0x01\n        /* \"Project Candidate/Candidate.sol\":2443:2444  i */\n      dup3\n        /* \"Project Candidate/Candidate.sol\":2432:2445  candidates[i] */\n      dup2\n      sload\n      dup2\n      lt\n      tag_113\n      jumpi\n      mstore(0x00, 0x4e487b7100000000000000000000000000000000000000000000000000000000)\n      mstore(0x04, 0x32)\n      revert(0x00, 0x24)\n    tag_113:\n      swap1\n      0x00\n      mstore\n      keccak256(0x00, 0x20)\n      swap1\n      0x02\n      mul\n      add\n        /* \"Project Candidate/Candidate.sol\":2432:2455  candidates[i].voteCount */\n      0x01\n      add\n      sload\n        /* \"Project Candidate/Candidate.sol\":2432:2474  candidates[i].voteCount > winningVoteCount */\n      gt\n        /* \"Project Candidate/Candidate.sol\":2428:2587  if (candidates[i].voteCount > winningVoteCount) {\r... */\n      iszero\n      tag_115\n      jumpi\n        /* \"Project Candidate/Candidate.sol\":2514:2524  candidates */\n      0x01\n        /* \"Project Candidate/Candidate.sol\":2525:2526  i */\n      dup2\n        /* \"Project Candidate/Candidate.sol\":2514:2527  candidates[i] */\n      dup2\n      sload\n      dup2\n      lt\n      tag_116\n      jumpi\n      mstore(0x00, 0x4e487b7100000000000000000000000000000000000000000000000000000000)\n      mstore(0x04, 0x32)\n      revert(0x00, 0x24)\n    tag_116:\n      swap1\n      0x00\n      mstore\n      keccak256(0x00, 0x20)\n      swap1\n      0x02\n      mul\n      add\n        /* \"Project Candidate/Candidate.sol\":2514:2537  candidates[i].voteCount */\n      0x01\n      add\n      sload\n        /* \"Project Candidate/Candidate.sol\":2495:2537  winningVoteCount = candidates[i].voteCount */\n      swap3\n      pop\n        /* \"Project Candidate/Candidate.sol\":2570:2571  i */\n      dup1\n        /* \"Project Candidate/Candidate.sol\":2556:2571  winnerIndex = i */\n      swap2\n      pop\n        /* \"Project Candidate/Candidate.sol\":2428:2587  if (candidates[i].voteCount > winningVoteCount) {\r... */\n    tag_115:\n        /* \"Project Candidate/Candidate.sol\":2408:2411  i++ */\n      dup1\n      dup1\n      tag_118\n      swap1\n      tag_119\n      jump\t// in\n    tag_118:\n      swap2\n      pop\n      pop\n        /* \"Project Candidate/Candidate.sol\":2368:2598  for (uint i = 0; i < candidates.length; i++) {\r... */\n      jump(tag_110)\n    tag_111:\n      pop\n        /* \"Project Candidate/Candidate.sol\":2618:2628  candidates */\n      0x01\n        /* \"Project Candidate/Candidate.sol\":2629:2640  winnerIndex */\n      dup2\n        /* \"Project Candidate/Candidate.sol\":2618:2641  candidates[winnerIndex] */\n      dup2\n      sload\n      dup2\n      lt\n      tag_120\n      jumpi\n      mstore(0x00, 0x4e487b7100000000000000000000000000000000000000000000000000000000)\n      mstore(0x04, 0x32)\n      revert(0x00, 0x24)\n    tag_120:\n      swap1\n      0x00\n      mstore\n      keccak256(0x00, 0x20)\n      swap1\n      0x02\n      mul\n      add\n        /* \"Project Candidate/Candidate.sol\":2618:2646  candidates[winnerIndex].name */\n      0x00\n      add\n        /* \"Project Candidate/Candidate.sol\":2648:2658  candidates */\n      0x01\n        /* \"Project Candidate/Candidate.sol\":2659:2670  winnerIndex */\n      dup3\n        /* \"Project Candidate/Candidate.sol\":2648:2671  candidates[winnerIndex] */\n      dup2\n      sload\n      dup2\n      lt\n      tag_122\n      jumpi\n      mstore(0x00, 0x4e487b7100000000000000000000000000000000000000000000000000000000)\n      mstore(0x04, 0x32)\n      revert(0x00, 0x24)\n    tag_122:\n      swap1\n      0x00\n      mstore\n      keccak256(0x00, 0x20)\n      swap1\n      0x02\n      mul\n      add\n        /* \"Project Candidate/Candidate.sol\":2648:2681  candidates[winnerIndex].voteCount */\n      0x01\n      add\n      sload\n        /* \"Project Candidate/Candidate.sol\":2610:2682  return (candidates[winnerIndex].name, candidates[winnerIndex].voteCount) */\n      dup2\n      dup1\n      sload\n      tag_124\n      swap1\n      tag_81\n      jump\t// in\n    tag_124:\n      dup1\n      0x1f\n      add\n      0x20\n      dup1\n      swap2\n      div\n      mul\n      0x20\n      add\n      mload(0x40)\n      swap1\n      dup2\n      add\n      0x40\n      mstore\n      dup1\n      swap3\n      swap2\n      swap1\n      dup2\n      dup2\n      mstore\n      0x20\n      add\n      dup3\n      dup1\n      sload\n      tag_125\n      swap1\n      tag_81\n      jump\t// in\n    tag_125:\n      dup1\n      iszero\n      tag_126\n      jumpi\n      dup1\n      0x1f\n      lt\n      tag_127\n      jumpi\n      0x0100\n      dup1\n      dup4\n      sload\n      div\n      mul\n      dup4\n      mstore\n      swap2\n      0x20\n      add\n      swap2\n      jump(tag_126)\n    tag_127:\n      dup3\n      add\n      swap2\n      swap1\n      0x00\n      mstore\n      keccak256(0x00, 0x20)\n      swap1\n    tag_128:\n      dup2\n      sload\n      dup2\n      mstore\n      swap1\n      0x01\n      add\n      swap1\n      0x20\n      add\n      dup1\n      dup4\n      gt\n      tag_128\n      jumpi\n      dup3\n      swap1\n      sub\n      0x1f\n      and\n      dup3\n      add\n      swap2\n    tag_126:\n      pop\n      pop\n      pop\n      pop\n      pop\n      swap2\n      pop\n      swap4\n      pop\n      swap4\n      pop\n      pop\n      pop\n        /* \"Project Candidate/Candidate.sol\":2151:2690  function getWinner() public view returns (string memory winnerName, uint maxVotes) {\r... */\n      swap1\n      swap2\n      jump\t// out\n        /* \"Project Candidate/Candidate.sol\":931:1008  function endVoting() public onlyOwner {\r... */\n    tag_56:\n        /* \"Project Candidate/Candidate.sol\":362:367  owner */\n      0x00\n      dup1\n      sload\n      swap1\n      0x0100\n      exp\n      swap1\n      div\n      0xffffffffffffffffffffffffffffffffffffffff\n      and\n        /* \"Project Candidate/Candidate.sol\":348:367  msg.sender == owner */\n      0xffffffffffffffffffffffffffffffffffffffff\n      and\n        /* \"Project Candidate/Candidate.sol\":348:358  msg.sender */\n      caller\n        /* \"Project Candidate/Candidate.sol\":348:367  msg.sender == owner */\n      0xffffffffffffffffffffffffffffffffffffffff\n      and\n      eq\n        /* \"Project Candidate/Candidate.sol\":340:390  require(msg.sender == owner, \"Not contract owner\") */\n      tag_130\n      jumpi\n      mload(0x40)\n      0x08c379a000000000000000000000000000000000000000000000000000000000\n      dup2\n      mstore\n      0x04\n      add\n      tag_131\n      swap1\n      tag_89\n      jump\t// in\n    tag_131:\n      mload(0x40)\n      dup1\n      swap2\n      sub\n      swap1\n      revert\n    tag_130:\n        /* \"Project Candidate/Candidate.sol\":995:1000  false */\n      0x00\n        /* \"Project Candidate/Candidate.sol\":980:992  votingActive */\n      dup1\n      0x14\n        /* \"Project Candidate/Candidate.sol\":980:1000  votingActive = false */\n      0x0100\n      exp\n      dup2\n      sload\n      dup2\n      0xff\n      mul\n      not\n      and\n      swap1\n      dup4\n      iszero\n      iszero\n      mul\n      or\n      swap1\n      sstore\n      pop\n        /* \"Project Candidate/Candidate.sol\":931:1008  function endVoting() public onlyOwner {\r... */\n      jump\t// out\n        /* \"Project Candidate/Candidate.sol\":1503:1753  function getCandidateList() public view returns (string[] memory) {\r... */\n    tag_58:\n        /* \"Project Candidate/Candidate.sol\":1552:1567  string[] memory */\n      0x60\n        /* \"Project Candidate/Candidate.sol\":1576:1597  string[] memory names */\n      0x00\n        /* \"Project Candidate/Candidate.sol\":1613:1623  candidates */\n      0x01\n        /* \"Project Candidate/Candidate.sol\":1613:1630  candidates.length */\n      dup1\n      sload\n      swap1\n      pop\n        /* \"Project Candidate/Candidate.sol\":1600:1631  new string[](candidates.length) */\n      0xffffffffffffffff\n      dup2\n      gt\n      iszero\n      tag_134\n      jumpi\n      mstore(0x00, 0x4e487b7100000000000000000000000000000000000000000000000000000000)\n      mstore(0x04, 0x41)\n      revert(0x00, 0x24)\n    tag_134:\n      mload(0x40)\n      swap1\n      dup1\n      dup3\n      mstore\n      dup1\n      0x20\n      mul\n      0x20\n      add\n      dup3\n      add\n      0x40\n      mstore\n      dup1\n      iszero\n      tag_135\n      jumpi\n      dup2\n      0x20\n      add\n    tag_136:\n      0x60\n      dup2\n      mstore\n      0x20\n      add\n      swap1\n      0x01\n      swap1\n      sub\n      swap1\n      dup2\n      tag_136\n      jumpi\n      swap1\n      pop\n    tag_135:\n      pop\n        /* \"Project Candidate/Candidate.sol\":1576:1631  string[] memory names = new string[](candidates.length) */\n      swap1\n      pop\n        /* \"Project Candidate/Candidate.sol\":1643:1649  uint i */\n      0x00\n        /* \"Project Candidate/Candidate.sol\":1638:1731  for (uint i = 0; i < candidates.length; i++) {\r... */\n    tag_137:\n        /* \"Project Candidate/Candidate.sol\":1659:1669  candidates */\n      0x01\n        /* \"Project Candidate/Candidate.sol\":1659:1676  candidates.length */\n      dup1\n      sload\n      swap1\n      pop\n        /* \"Project Candidate/Candidate.sol\":1655:1656  i */\n      dup2\n        /* \"Project Candidate/Candidate.sol\":1655:1676  i < candidates.length */\n      lt\n        /* \"Project Candidate/Candidate.sol\":1638:1731  for (uint i = 0; i < candidates.length; i++) {\r... */\n      iszero\n      tag_138\n      jumpi\n        /* \"Project Candidate/Candidate.sol\":1705:1715  candidates */\n      0x01\n        /* \"Project Candidate/Candidate.sol\":1716:1717  i */\n      dup2\n        /* \"Project Candidate/Candidate.sol\":1705:1718  candidates[i] */\n      dup2\n      sload\n      dup2\n      lt\n      tag_140\n      jumpi\n      mstore(0x00, 0x4e487b7100000000000000000000000000000000000000000000000000000000)\n      mstore(0x04, 0x32)\n      revert(0x00, 0x24)\n    tag_140:\n      swap1\n      0x00\n      mstore\n      keccak256(0x00, 0x20)\n      swap1\n      0x02\n      mul\n      add\n        /* \"Project Candidate/Candidate.sol\":1705:1723  candidates[i].name */\n      0x00\n      add\n        /* \"Project Candidate/Candidate.sol\":1694:1723  names[i] = candidates[i].name */\n      dup1\n      sload\n      tag_142\n      swap1\n      tag_81\n      jump\t// in\n    tag_142:\n      dup1\n      0x1f\n      add\n      0x20\n      dup1\n      swap2\n      div\n      mul\n      0x20\n      add\n      mload(0x40)\n      swap1\n      dup2\n      add\n      0x40\n      mstore\n      dup1\n      swap3\n      swap2\n      swap1\n      dup2\n      dup2\n      mstore\n      0x20\n      add\n      dup3\n      dup1\n      sload\n      tag_143\n      swap1\n      tag_81\n      jump\t// in\n    tag_143:\n      dup1\n      iszero\n      tag_144\n      jumpi\n      dup1\n      0x1f\n      lt\n      tag_145\n      jumpi\n      0x0100\n      dup1\n      dup4\n      sload\n      div\n      mul\n      dup4\n      mstore\n      swap2\n      0x20\n      add\n      swap2\n      jump(tag_144)\n    tag_145:\n      dup3\n      add\n      swap2\n      swap1\n      0x00\n      mstore\n      keccak256(0x00, 0x20)\n      swap1\n    tag_146:\n      dup2\n      sload\n      dup2\n      mstore\n      swap1\n      0x01\n      add\n      swap1\n      0x20\n      add\n      dup1\n      dup4\n      gt\n      tag_146\n      jumpi\n      dup3\n      swap1\n      sub\n      0x1f\n      and\n      dup3\n      add\n      swap2\n    tag_144:\n      pop\n      pop\n      pop\n      pop\n      pop\n        /* \"Project Candidate/Candidate.sol\":1694:1699  names */\n      dup3\n        /* \"Project Candidate/Candidate.sol\":1700:1701  i */\n      dup3\n        /* \"Project Candidate/Candidate.sol\":1694:1702  names[i] */\n      dup2\n      mload\n      dup2\n      lt\n      tag_147\n      jumpi\n      mstore(0x00, 0x4e487b7100000000000000000000000000000000000000000000000000000000)\n      mstore(0x04, 0x32)\n      revert(0x00, 0x24)\n    tag_147:\n      0x20\n      mul\n      0x20\n      add\n      add\n        /* \"Project Candidate/Candidate.sol\":1694:1723  names[i] = candidates[i].name */\n      dup2\n      swap1\n      mstore\n      pop\n        /* \"Project Candidate/Candidate.sol\":1678:1681  i++ */\n      dup1\n      dup1\n      tag_148\n      swap1\n      tag_119\n      jump\t// in\n    tag_148:\n      swap2\n      pop\n      pop\n        /* \"Project Candidate/Candidate.sol\":1638:1731  for (uint i = 0; i < candidates.length; i++) {\r... */\n      jump(tag_137)\n    tag_138:\n      pop\n        /* \"Project Candidate/Candidate.sol\":1744:1749  names */\n      dup1\n        /* \"Project Candidate/Candidate.sol\":1737:1749  return names */\n      swap2\n      pop\n      pop\n        /* \"Project Candidate/Candidate.sol\":1503:1753  function getCandidateList() public view returns (string[] memory) {\r... */\n      swap1\n      jump\t// out\n    tag_105:\n      dup3\n      dup1\n      sload\n      tag_149\n      swap1\n      tag_81\n      jump\t// in\n    tag_149:\n      swap1\n      0x00\n      mstore\n      keccak256(0x00, 0x20)\n      swap1\n      0x1f\n      add\n      0x20\n      swap1\n      div\n      dup2\n      add\n      swap3\n      dup3\n      tag_151\n      jumpi\n      0x00\n      dup6\n      sstore\n      jump(tag_150)\n    tag_151:\n      dup3\n      0x1f\n      lt\n      tag_152\n      jumpi\n      dup1\n      mload\n      not(0xff)\n      and\n      dup4\n      dup1\n      add\n      or\n      dup6\n      sstore\n      jump(tag_150)\n    tag_152:\n      dup3\n      dup1\n      add\n      0x01\n      add\n      dup6\n      sstore\n      dup3\n      iszero\n      tag_150\n      jumpi\n      swap2\n      dup3\n      add\n    tag_153:\n      dup3\n      dup2\n      gt\n      iszero\n      tag_154\n      jumpi\n      dup3\n      mload\n      dup3\n      sstore\n      swap2\n      0x20\n      add\n      swap2\n      swap1\n      0x01\n      add\n      swap1\n      jump(tag_153)\n    tag_154:\n    tag_150:\n      pop\n      swap1\n      pop\n      tag_155\n      swap2\n      swap1\n      tag_156\n      jump\t// in\n    tag_155:\n      pop\n      swap1\n      jump\t// out\n    tag_156:\n    tag_157:\n      dup1\n      dup3\n      gt\n      iszero\n      tag_158\n      jumpi\n      0x00\n      dup2\n      0x00\n      swap1\n      sstore\n      pop\n      0x01\n      add\n      jump(tag_157)\n    tag_158:\n      pop\n      swap1\n      jump\t// out\n        /* \"#utility.yul\":7:351   */\n    tag_160:\n      0x00\n        /* \"#utility.yul\":110:175   */\n      tag_162\n        /* \"#utility.yul\":125:174   */\n      tag_163\n        /* \"#utility.yul\":167:173   */\n      dup5\n        /* \"#utility.yul\":125:174   */\n      tag_164\n      jump\t// in\n    tag_163:\n        /* \"#utility.yul\":110:175   */\n      tag_165\n      jump\t// in\n    tag_162:\n        /* \"#utility.yul\":101:175   */\n      swap1\n      pop\n        /* \"#utility.yul\":198:204   */\n      dup3\n        /* \"#utility.yul\":191:196   */\n      dup2\n        /* \"#utility.yul\":184:205   */\n      mstore\n        /* \"#utility.yul\":236:240   */\n      0x20\n        /* \"#utility.yul\":229:234   */\n      dup2\n        /* \"#utility.yul\":225:241   */\n      add\n        /* \"#utility.yul\":274:277   */\n      dup5\n        /* \"#utility.yul\":265:271   */\n      dup5\n        /* \"#utility.yul\":260:263   */\n      dup5\n        /* \"#utility.yul\":256:272   */\n      add\n        /* \"#utility.yul\":253:278   */\n      gt\n        /* \"#utility.yul\":250:252   */\n      iszero\n      tag_166\n      jumpi\n        /* \"#utility.yul\":291:292   */\n      0x00\n        /* \"#utility.yul\":288:289   */\n      dup1\n        /* \"#utility.yul\":281:293   */\n      revert\n        /* \"#utility.yul\":250:252   */\n    tag_166:\n        /* \"#utility.yul\":304:345   */\n      tag_167\n        /* \"#utility.yul\":338:344   */\n      dup5\n        /* \"#utility.yul\":333:336   */\n      dup3\n        /* \"#utility.yul\":328:331   */\n      dup6\n        /* \"#utility.yul\":304:345   */\n      tag_168\n      jump\t// in\n    tag_167:\n        /* \"#utility.yul\":91:351   */\n      pop\n      swap4\n      swap3\n      pop\n      pop\n      pop\n      jump\t// out\n        /* \"#utility.yul\":357:496   */\n    tag_169:\n      0x00\n        /* \"#utility.yul\":441:447   */\n      dup2\n        /* \"#utility.yul\":428:448   */\n      calldataload\n        /* \"#utility.yul\":419:448   */\n      swap1\n      pop\n        /* \"#utility.yul\":457:490   */\n      tag_171\n        /* \"#utility.yul\":484:489   */\n      dup2\n        /* \"#utility.yul\":457:490   */\n      tag_172\n      jump\t// in\n    tag_171:\n        /* \"#utility.yul\":409:496   */\n      swap3\n      swap2\n      pop\n      pop\n      jump\t// out\n        /* \"#utility.yul\":516:789   */\n    tag_173:\n      0x00\n        /* \"#utility.yul\":621:624   */\n      dup3\n        /* \"#utility.yul\":614:618   */\n      0x1f\n        /* \"#utility.yul\":606:612   */\n      dup4\n        /* \"#utility.yul\":602:619   */\n      add\n        /* \"#utility.yul\":598:625   */\n      slt\n        /* \"#utility.yul\":588:590   */\n      tag_175\n      jumpi\n        /* \"#utility.yul\":639:640   */\n      0x00\n        /* \"#utility.yul\":636:637   */\n      dup1\n        /* \"#utility.yul\":629:641   */\n      revert\n        /* \"#utility.yul\":588:590   */\n    tag_175:\n        /* \"#utility.yul\":679:685   */\n      dup2\n        /* \"#utility.yul\":666:686   */\n      calldataload\n        /* \"#utility.yul\":704:783   */\n      tag_176\n        /* \"#utility.yul\":779:782   */\n      dup5\n        /* \"#utility.yul\":771:777   */\n      dup3\n        /* \"#utility.yul\":764:768   */\n      0x20\n        /* \"#utility.yul\":756:762   */\n      dup7\n        /* \"#utility.yul\":752:769   */\n      add\n        /* \"#utility.yul\":704:783   */\n      tag_160\n      jump\t// in\n    tag_176:\n        /* \"#utility.yul\":695:783   */\n      swap2\n      pop\n        /* \"#utility.yul\":578:789   */\n      pop\n      swap3\n      swap2\n      pop\n      pop\n      jump\t// out\n        /* \"#utility.yul\":795:934   */\n    tag_177:\n      0x00\n        /* \"#utility.yul\":879:885   */\n      dup2\n        /* \"#utility.yul\":866:886   */\n      calldataload\n        /* \"#utility.yul\":857:886   */\n      swap1\n      pop\n        /* \"#utility.yul\":895:928   */\n      tag_179\n        /* \"#utility.yul\":922:927   */\n      dup2\n        /* \"#utility.yul\":895:928   */\n      tag_180\n      jump\t// in\n    tag_179:\n        /* \"#utility.yul\":847:934   */\n      swap3\n      swap2\n      pop\n      pop\n      jump\t// out\n        /* \"#utility.yul\":940:1202   */\n    tag_26:\n      0x00\n        /* \"#utility.yul\":1048:1050   */\n      0x20\n        /* \"#utility.yul\":1036:1045   */\n      dup3\n        /* \"#utility.yul\":1027:1034   */\n      dup5\n        /* \"#utility.yul\":1023:1046   */\n      sub\n        /* \"#utility.yul\":1019:1051   */\n      slt\n        /* \"#utility.yul\":1016:1018   */\n      iszero\n      tag_182\n      jumpi\n        /* \"#utility.yul\":1064:1065   */\n      0x00\n        /* \"#utility.yul\":1061:1062   */\n      dup1\n        /* \"#utility.yul\":1054:1066   */\n      revert\n        /* \"#utility.yul\":1016:1018   */\n    tag_182:\n        /* \"#utility.yul\":1107:1108   */\n      0x00\n        /* \"#utility.yul\":1132:1185   */\n      tag_183\n        /* \"#utility.yul\":1177:1184   */\n      dup5\n        /* \"#utility.yul\":1168:1174   */\n      dup3\n        /* \"#utility.yul\":1157:1166   */\n      dup6\n        /* \"#utility.yul\":1153:1175   */\n      add\n        /* \"#utility.yul\":1132:1185   */\n      tag_169\n      jump\t// in\n    tag_183:\n        /* \"#utility.yul\":1122:1185   */\n      swap2\n      pop\n        /* \"#utility.yul\":1078:1195   */\n      pop\n        /* \"#utility.yul\":1006:1202   */\n      swap3\n      swap2\n      pop\n      pop\n      jump\t// out\n        /* \"#utility.yul\":1208:1583   */\n    tag_46:\n      0x00\n        /* \"#utility.yul\":1326:1328   */\n      0x20\n        /* \"#utility.yul\":1314:1323   */\n      dup3\n        /* \"#utility.yul\":1305:1312   */\n      dup5\n        /* \"#utility.yul\":1301:1324   */\n      sub\n        /* \"#utility.yul\":1297:1329   */\n      slt\n        /* \"#utility.yul\":1294:1296   */\n      iszero\n      tag_185\n      jumpi\n        /* \"#utility.yul\":1342:1343   */\n      0x00\n        /* \"#utility.yul\":1339:1340   */\n      dup1\n        /* \"#utility.yul\":1332:1344   */\n      revert\n        /* \"#utility.yul\":1294:1296   */\n    tag_185:\n        /* \"#utility.yul\":1413:1414   */\n      0x00\n        /* \"#utility.yul\":1402:1411   */\n      dup3\n        /* \"#utility.yul\":1398:1415   */\n      add\n        /* \"#utility.yul\":1385:1416   */\n      calldataload\n        /* \"#utility.yul\":1443:1461   */\n      0xffffffffffffffff\n        /* \"#utility.yul\":1435:1441   */\n      dup2\n        /* \"#utility.yul\":1432:1462   */\n      gt\n        /* \"#utility.yul\":1429:1431   */\n      iszero\n      tag_186\n      jumpi\n        /* \"#utility.yul\":1475:1476   */\n      0x00\n        /* \"#utility.yul\":1472:1473   */\n      dup1\n        /* \"#utility.yul\":1465:1477   */\n      revert\n        /* \"#utility.yul\":1429:1431   */\n    tag_186:\n        /* \"#utility.yul\":1503:1566   */\n      tag_187\n        /* \"#utility.yul\":1558:1565   */\n      dup5\n        /* \"#utility.yul\":1549:1555   */\n      dup3\n        /* \"#utility.yul\":1538:1547   */\n      dup6\n        /* \"#utility.yul\":1534:1556   */\n      add\n        /* \"#utility.yul\":1503:1566   */\n      tag_173\n      jump\t// in\n    tag_187:\n        /* \"#utility.yul\":1493:1566   */\n      swap2\n      pop\n        /* \"#utility.yul\":1356:1576   */\n      pop\n        /* \"#utility.yul\":1284:1583   */\n      swap3\n      swap2\n      pop\n      pop\n      jump\t// out\n        /* \"#utility.yul\":1589:1851   */\n    tag_18:\n      0x00\n        /* \"#utility.yul\":1697:1699   */\n      0x20\n        /* \"#utility.yul\":1685:1694   */\n      dup3\n        /* \"#utility.yul\":1676:1683   */\n      dup5\n        /* \"#utility.yul\":1672:1695   */\n      sub\n        /* \"#utility.yul\":1668:1700   */\n      slt\n        /* \"#utility.yul\":1665:1667   */\n      iszero\n      tag_189\n      jumpi\n        /* \"#utility.yul\":1713:1714   */\n      0x00\n        /* \"#utility.yul\":1710:1711   */\n      dup1\n        /* \"#utility.yul\":1703:1715   */\n      revert\n        /* \"#utility.yul\":1665:1667   */\n    tag_189:\n        /* \"#utility.yul\":1756:1757   */\n      0x00\n        /* \"#utility.yul\":1781:1834   */\n      tag_190\n        /* \"#utility.yul\":1826:1833   */\n      dup5\n        /* \"#utility.yul\":1817:1823   */\n      dup3\n        /* \"#utility.yul\":1806:1815   */\n      dup6\n        /* \"#utility.yul\":1802:1824   */\n      add\n        /* \"#utility.yul\":1781:1834   */\n      tag_177\n      jump\t// in\n    tag_190:\n        /* \"#utility.yul\":1771:1834   */\n      swap2\n      pop\n        /* \"#utility.yul\":1727:1844   */\n      pop\n        /* \"#utility.yul\":1655:1851   */\n      swap3\n      swap2\n      pop\n      pop\n      jump\t// out\n        /* \"#utility.yul\":1857:2053   */\n    tag_191:\n      0x00\n        /* \"#utility.yul\":1981:2047   */\n      tag_193\n        /* \"#utility.yul\":2043:2046   */\n      dup4\n        /* \"#utility.yul\":2035:2041   */\n      dup4\n        /* \"#utility.yul\":1981:2047   */\n      tag_194\n      jump\t// in\n    tag_193:\n        /* \"#utility.yul\":1967:2047   */\n      swap1\n      pop\n        /* \"#utility.yul\":1957:2053   */\n      swap3\n      swap2\n      pop\n      pop\n      jump\t// out\n        /* \"#utility.yul\":2059:2315   */\n    tag_195:\n      0x00\n        /* \"#utility.yul\":2213:2309   */\n      tag_197\n        /* \"#utility.yul\":2305:2308   */\n      dup4\n        /* \"#utility.yul\":2297:2303   */\n      dup4\n        /* \"#utility.yul\":2213:2309   */\n      tag_198\n      jump\t// in\n    tag_197:\n        /* \"#utility.yul\":2199:2309   */\n      swap1\n      pop\n        /* \"#utility.yul\":2189:2315   */\n      swap3\n      swap2\n      pop\n      pop\n      jump\t// out\n        /* \"#utility.yul\":2321:2439   */\n    tag_199:\n        /* \"#utility.yul\":2408:2432   */\n      tag_201\n        /* \"#utility.yul\":2426:2431   */\n      dup2\n        /* \"#utility.yul\":2408:2432   */\n      tag_202\n      jump\t// in\n    tag_201:\n        /* \"#utility.yul\":2403:2406   */\n      dup3\n        /* \"#utility.yul\":2396:2433   */\n      mstore\n        /* \"#utility.yul\":2386:2439   */\n      pop\n      pop\n      jump\t// out\n        /* \"#utility.yul\":2473:3464   */\n    tag_203:\n      0x00\n        /* \"#utility.yul\":2641:2705   */\n      tag_205\n        /* \"#utility.yul\":2699:2704   */\n      dup3\n        /* \"#utility.yul\":2641:2705   */\n      tag_206\n      jump\t// in\n    tag_205:\n        /* \"#utility.yul\":2721:2817   */\n      tag_207\n        /* \"#utility.yul\":2810:2816   */\n      dup2\n        /* \"#utility.yul\":2805:2808   */\n      dup6\n        /* \"#utility.yul\":2721:2817   */\n      tag_208\n      jump\t// in\n    tag_207:\n        /* \"#utility.yul\":2714:2817   */\n      swap4\n      pop\n        /* \"#utility.yul\":2843:2846   */\n      dup4\n        /* \"#utility.yul\":2888:2892   */\n      0x20\n        /* \"#utility.yul\":2880:2886   */\n      dup3\n        /* \"#utility.yul\":2876:2893   */\n      mul\n        /* \"#utility.yul\":2871:2874   */\n      dup6\n        /* \"#utility.yul\":2867:2894   */\n      add\n        /* \"#utility.yul\":2918:2984   */\n      tag_209\n        /* \"#utility.yul\":2978:2983   */\n      dup6\n        /* \"#utility.yul\":2918:2984   */\n      tag_210\n      jump\t// in\n    tag_209:\n        /* \"#utility.yul\":3007:3014   */\n      dup1\n        /* \"#utility.yul\":3038:3039   */\n      0x00\n        /* \"#utility.yul\":3023:3419   */\n    tag_211:\n        /* \"#utility.yul\":3048:3054   */\n      dup6\n        /* \"#utility.yul\":3045:3046   */\n      dup2\n        /* \"#utility.yul\":3042:3055   */\n      lt\n        /* \"#utility.yul\":3023:3419   */\n      iszero\n      tag_213\n      jumpi\n        /* \"#utility.yul\":3119:3128   */\n      dup5\n        /* \"#utility.yul\":3113:3117   */\n      dup5\n        /* \"#utility.yul\":3109:3129   */\n      sub\n        /* \"#utility.yul\":3104:3107   */\n      dup10\n        /* \"#utility.yul\":3097:3130   */\n      mstore\n        /* \"#utility.yul\":3170:3176   */\n      dup2\n        /* \"#utility.yul\":3164:3177   */\n      mload\n        /* \"#utility.yul\":3198:3282   */\n      tag_214\n        /* \"#utility.yul\":3277:3281   */\n      dup6\n        /* \"#utility.yul\":3262:3275   */\n      dup3\n        /* \"#utility.yul\":3198:3282   */\n      tag_191\n      jump\t// in\n    tag_214:\n        /* \"#utility.yul\":3190:3282   */\n      swap5\n      pop\n        /* \"#utility.yul\":3305:3375   */\n      tag_215\n        /* \"#utility.yul\":3368:3374   */\n      dup4\n        /* \"#utility.yul\":3305:3375   */\n      tag_216\n      jump\t// in\n    tag_215:\n        /* \"#utility.yul\":3295:3375   */\n      swap3\n      pop\n        /* \"#utility.yul\":3404:3408   */\n      0x20\n        /* \"#utility.yul\":3399:3402   */\n      dup11\n        /* \"#utility.yul\":3395:3409   */\n      add\n        /* \"#utility.yul\":3388:3409   */\n      swap10\n      pop\n        /* \"#utility.yul\":3083:3419   */\n      pop\n        /* \"#utility.yul\":3070:3071   */\n      0x01\n        /* \"#utility.yul\":3067:3068   */\n      dup2\n        /* \"#utility.yul\":3063:3072   */\n      add\n        /* \"#utility.yul\":3058:3072   */\n      swap1\n      pop\n        /* \"#utility.yul\":3023:3419   */\n      jump(tag_211)\n    tag_213:\n        /* \"#utility.yul\":3027:3041   */\n      pop\n        /* \"#utility.yul\":3435:3439   */\n      dup3\n        /* \"#utility.yul\":3428:3439   */\n      swap8\n      pop\n        /* \"#utility.yul\":3455:3458   */\n      dup8\n        /* \"#utility.yul\":3448:3458   */\n      swap6\n      pop\n        /* \"#utility.yul\":2617:3464   */\n      pop\n      pop\n      pop\n      pop\n      pop\n      swap3\n      swap2\n      pop\n      pop\n      jump\t// out\n        /* \"#utility.yul\":3532:4643   */\n    tag_217:\n      0x00\n        /* \"#utility.yul\":3730:3809   */\n      tag_219\n        /* \"#utility.yul\":3803:3808   */\n      dup3\n        /* \"#utility.yul\":3730:3809   */\n      tag_220\n      jump\t// in\n    tag_219:\n        /* \"#utility.yul\":3825:3936   */\n      tag_221\n        /* \"#utility.yul\":3929:3935   */\n      dup2\n        /* \"#utility.yul\":3924:3927   */\n      dup6\n        /* \"#utility.yul\":3825:3936   */\n      tag_222\n      jump\t// in\n    tag_221:\n        /* \"#utility.yul\":3818:3936   */\n      swap4\n      pop\n        /* \"#utility.yul\":3962:3965   */\n      dup4\n        /* \"#utility.yul\":4007:4011   */\n      0x20\n        /* \"#utility.yul\":3999:4005   */\n      dup3\n        /* \"#utility.yul\":3995:4012   */\n      mul\n        /* \"#utility.yul\":3990:3993   */\n      dup6\n        /* \"#utility.yul\":3986:4013   */\n      add\n        /* \"#utility.yul\":4037:4118   */\n      tag_223\n        /* \"#utility.yul\":4112:4117   */\n      dup6\n        /* \"#utility.yul\":4037:4118   */\n      tag_224\n      jump\t// in\n    tag_223:\n        /* \"#utility.yul\":4141:4148   */\n      dup1\n        /* \"#utility.yul\":4172:4173   */\n      0x00\n        /* \"#utility.yul\":4157:4598   */\n    tag_225:\n        /* \"#utility.yul\":4182:4188   */\n      dup6\n        /* \"#utility.yul\":4179:4180   */\n      dup2\n        /* \"#utility.yul\":4176:4189   */\n      lt\n        /* \"#utility.yul\":4157:4598   */\n      iszero\n      tag_227\n      jumpi\n        /* \"#utility.yul\":4253:4262   */\n      dup5\n        /* \"#utility.yul\":4247:4251   */\n      dup5\n        /* \"#utility.yul\":4243:4263   */\n      sub\n        /* \"#utility.yul\":4238:4241   */\n      dup10\n        /* \"#utility.yul\":4231:4264   */\n      mstore\n        /* \"#utility.yul\":4304:4310   */\n      dup2\n        /* \"#utility.yul\":4298:4311   */\n      mload\n        /* \"#utility.yul\":4332:4446   */\n      tag_228\n        /* \"#utility.yul\":4441:4445   */\n      dup6\n        /* \"#utility.yul\":4426:4439   */\n      dup3\n        /* \"#utility.yul\":4332:4446   */\n      tag_195\n      jump\t// in\n    tag_228:\n        /* \"#utility.yul\":4324:4446   */\n      swap5\n      pop\n        /* \"#utility.yul\":4469:4554   */\n      tag_229\n        /* \"#utility.yul\":4547:4553   */\n      dup4\n        /* \"#utility.yul\":4469:4554   */\n      tag_230\n      jump\t// in\n    tag_229:\n        /* \"#utility.yul\":4459:4554   */\n      swap3\n      pop\n        /* \"#utility.yul\":4583:4587   */\n      0x20\n        /* \"#utility.yul\":4578:4581   */\n      dup11\n        /* \"#utility.yul\":4574:4588   */\n      add\n        /* \"#utility.yul\":4567:4588   */\n      swap10\n      pop\n        /* \"#utility.yul\":4217:4598   */\n      pop\n        /* \"#utility.yul\":4204:4205   */\n      0x01\n        /* \"#utility.yul\":4201:4202   */\n      dup2\n        /* \"#utility.yul\":4197:4206   */\n      add\n        /* \"#utility.yul\":4192:4206   */\n      swap1\n      pop\n        /* \"#utility.yul\":4157:4598   */\n      jump(tag_225)\n    tag_227:\n        /* \"#utility.yul\":4161:4175   */\n      pop\n        /* \"#utility.yul\":4614:4618   */\n      dup3\n        /* \"#utility.yul\":4607:4618   */\n      swap8\n      pop\n        /* \"#utility.yul\":4634:4637   */\n      dup8\n        /* \"#utility.yul\":4627:4637   */\n      swap6\n      pop\n        /* \"#utility.yul\":3706:4643   */\n      pop\n      pop\n      pop\n      pop\n      pop\n      swap3\n      swap2\n      pop\n      pop\n      jump\t// out\n        /* \"#utility.yul\":4649:4758   */\n    tag_231:\n        /* \"#utility.yul\":4730:4751   */\n      tag_233\n        /* \"#utility.yul\":4745:4750   */\n      dup2\n        /* \"#utility.yul\":4730:4751   */\n      tag_234\n      jump\t// in\n    tag_233:\n        /* \"#utility.yul\":4725:4728   */\n      dup3\n        /* \"#utility.yul\":4718:4752   */\n      mstore\n        /* \"#utility.yul\":4708:4758   */\n      pop\n      pop\n      jump\t// out\n        /* \"#utility.yul\":4764:5108   */\n    tag_194:\n      0x00\n        /* \"#utility.yul\":4870:4909   */\n      tag_236\n        /* \"#utility.yul\":4903:4908   */\n      dup3\n        /* \"#utility.yul\":4870:4909   */\n      tag_237\n      jump\t// in\n    tag_236:\n        /* \"#utility.yul\":4925:4986   */\n      tag_238\n        /* \"#utility.yul\":4979:4985   */\n      dup2\n        /* \"#utility.yul\":4974:4977   */\n      dup6\n        /* \"#utility.yul\":4925:4986   */\n      tag_239\n      jump\t// in\n    tag_238:\n        /* \"#utility.yul\":4918:4986   */\n      swap4\n      pop\n        /* \"#utility.yul\":4995:5047   */\n      tag_240\n        /* \"#utility.yul\":5040:5046   */\n      dup2\n        /* \"#utility.yul\":5035:5038   */\n      dup6\n        /* \"#utility.yul\":5028:5032   */\n      0x20\n        /* \"#utility.yul\":5021:5026   */\n      dup7\n        /* \"#utility.yul\":5017:5033   */\n      add\n        /* \"#utility.yul\":4995:5047   */\n      tag_241\n      jump\t// in\n    tag_240:\n        /* \"#utility.yul\":5072:5101   */\n      tag_242\n        /* \"#utility.yul\":5094:5100   */\n      dup2\n        /* \"#utility.yul\":5072:5101   */\n      tag_243\n      jump\t// in\n    tag_242:\n        /* \"#utility.yul\":5067:5070   */\n      dup5\n        /* \"#utility.yul\":5063:5102   */\n      add\n        /* \"#utility.yul\":5056:5102   */\n      swap2\n      pop\n        /* \"#utility.yul\":4846:5108   */\n      pop\n      swap3\n      swap2\n      pop\n      pop\n      jump\t// out\n        /* \"#utility.yul\":5114:5478   */\n    tag_244:\n      0x00\n        /* \"#utility.yul\":5230:5269   */\n      tag_246\n        /* \"#utility.yul\":5263:5268   */\n      dup3\n        /* \"#utility.yul\":5230:5269   */\n      tag_237\n      jump\t// in\n    tag_246:\n        /* \"#utility.yul\":5285:5356   */\n      tag_247\n        /* \"#utility.yul\":5349:5355   */\n      dup2\n        /* \"#utility.yul\":5344:5347   */\n      dup6\n        /* \"#utility.yul\":5285:5356   */\n      tag_248\n      jump\t// in\n    tag_247:\n        /* \"#utility.yul\":5278:5356   */\n      swap4\n      pop\n        /* \"#utility.yul\":5365:5417   */\n      tag_249\n        /* \"#utility.yul\":5410:5416   */\n      dup2\n        /* \"#utility.yul\":5405:5408   */\n      dup6\n        /* \"#utility.yul\":5398:5402   */\n      0x20\n        /* \"#utility.yul\":5391:5396   */\n      dup7\n        /* \"#utility.yul\":5387:5403   */\n      add\n        /* \"#utility.yul\":5365:5417   */\n      tag_241\n      jump\t// in\n    tag_249:\n        /* \"#utility.yul\":5442:5471   */\n      tag_250\n        /* \"#utility.yul\":5464:5470   */\n      dup2\n        /* \"#utility.yul\":5442:5471   */\n      tag_243\n      jump\t// in\n    tag_250:\n        /* \"#utility.yul\":5437:5440   */\n      dup5\n        /* \"#utility.yul\":5433:5472   */\n      add\n        /* \"#utility.yul\":5426:5472   */\n      swap2\n      pop\n        /* \"#utility.yul\":5206:5478   */\n      pop\n      swap3\n      swap2\n      pop\n      pop\n      jump\t// out\n        /* \"#utility.yul\":5484:5795   */\n    tag_251:\n      0x00\n        /* \"#utility.yul\":5647:5714   */\n      tag_253\n        /* \"#utility.yul\":5711:5713   */\n      0x0d\n        /* \"#utility.yul\":5706:5709   */\n      dup4\n        /* \"#utility.yul\":5647:5714   */\n      tag_248\n      jump\t// in\n    tag_253:\n        /* \"#utility.yul\":5640:5714   */\n      swap2\n      pop\n        /* \"#utility.yul\":5744:5759   */\n      0x416c726561647920766f74656400000000000000000000000000000000000000\n        /* \"#utility.yul\":5740:5741   */\n      0x00\n        /* \"#utility.yul\":5735:5738   */\n      dup4\n        /* \"#utility.yul\":5731:5742   */\n      add\n        /* \"#utility.yul\":5724:5760   */\n      mstore\n        /* \"#utility.yul\":5786:5788   */\n      0x20\n        /* \"#utility.yul\":5781:5784   */\n      dup3\n        /* \"#utility.yul\":5777:5789   */\n      add\n        /* \"#utility.yul\":5770:5789   */\n      swap1\n      pop\n        /* \"#utility.yul\":5630:5795   */\n      swap2\n      swap1\n      pop\n      jump\t// out\n        /* \"#utility.yul\":5801:6116   */\n    tag_254:\n      0x00\n        /* \"#utility.yul\":5964:6031   */\n      tag_256\n        /* \"#utility.yul\":6028:6030   */\n      0x11\n        /* \"#utility.yul\":6023:6026   */\n      dup4\n        /* \"#utility.yul\":5964:6031   */\n      tag_248\n      jump\t// in\n    tag_256:\n        /* \"#utility.yul\":5957:6031   */\n      swap2\n      pop\n        /* \"#utility.yul\":6061:6080   */\n      0x496e76616c69642063616e646964617465000000000000000000000000000000\n        /* \"#utility.yul\":6057:6058   */\n      0x00\n        /* \"#utility.yul\":6052:6055   */\n      dup4\n        /* \"#utility.yul\":6048:6059   */\n      add\n        /* \"#utility.yul\":6041:6081   */\n      mstore\n        /* \"#utility.yul\":6107:6109   */\n      0x20\n        /* \"#utility.yul\":6102:6105   */\n      dup3\n        /* \"#utility.yul\":6098:6110   */\n      add\n        /* \"#utility.yul\":6091:6110   */\n      swap1\n      pop\n        /* \"#utility.yul\":5947:6116   */\n      swap2\n      swap1\n      pop\n      jump\t// out\n        /* \"#utility.yul\":6122:6440   */\n    tag_257:\n      0x00\n        /* \"#utility.yul\":6285:6352   */\n      tag_259\n        /* \"#utility.yul\":6349:6351   */\n      0x14\n        /* \"#utility.yul\":6344:6347   */\n      dup4\n        /* \"#utility.yul\":6285:6352   */\n      tag_248\n      jump\t// in\n    tag_259:\n        /* \"#utility.yul\":6278:6352   */\n      swap2\n      pop\n        /* \"#utility.yul\":6382:6404   */\n      0x566f74696e67206973206e6f7420616374697665000000000000000000000000\n        /* \"#utility.yul\":6378:6379   */\n      0x00\n        /* \"#utility.yul\":6373:6376   */\n      dup4\n        /* \"#utility.yul\":6369:6380   */\n      add\n        /* \"#utility.yul\":6362:6405   */\n      mstore\n        /* \"#utility.yul\":6431:6433   */\n      0x20\n        /* \"#utility.yul\":6426:6429   */\n      dup3\n        /* \"#utility.yul\":6422:6434   */\n      add\n        /* \"#utility.yul\":6415:6434   */\n      swap1\n      pop\n        /* \"#utility.yul\":6268:6440   */\n      swap2\n      swap1\n      pop\n      jump\t// out\n        /* \"#utility.yul\":6446:6763   */\n    tag_260:\n      0x00\n        /* \"#utility.yul\":6609:6676   */\n      tag_262\n        /* \"#utility.yul\":6673:6675   */\n      0x13\n        /* \"#utility.yul\":6668:6671   */\n      dup4\n        /* \"#utility.yul\":6609:6676   */\n      tag_248\n      jump\t// in\n    tag_262:\n        /* \"#utility.yul\":6602:6676   */\n      swap2\n      pop\n        /* \"#utility.yul\":6706:6727   */\n      0x566f74696e67207374696c6c2061637469766500000000000000000000000000\n        /* \"#utility.yul\":6702:6703   */\n      0x00\n        /* \"#utility.yul\":6697:6700   */\n      dup4\n        /* \"#utility.yul\":6693:6704   */\n      add\n        /* \"#utility.yul\":6686:6728   */\n      mstore\n        /* \"#utility.yul\":6754:6756   */\n      0x20\n        /* \"#utility.yul\":6749:6752   */\n      dup3\n        /* \"#utility.yul\":6745:6757   */\n      add\n        /* \"#utility.yul\":6738:6757   */\n      swap1\n      pop\n        /* \"#utility.yul\":6592:6763   */\n      swap2\n      swap1\n      pop\n      jump\t// out\n        /* \"#utility.yul\":6769:7085   */\n    tag_263:\n      0x00\n        /* \"#utility.yul\":6932:6999   */\n      tag_265\n        /* \"#utility.yul\":6996:6998   */\n      0x12\n        /* \"#utility.yul\":6991:6994   */\n      dup4\n        /* \"#utility.yul\":6932:6999   */\n      tag_248\n      jump\t// in\n    tag_265:\n        /* \"#utility.yul\":6925:6999   */\n      swap2\n      pop\n        /* \"#utility.yul\":7029:7049   */\n      0x4e6f7420636f6e7472616374206f776e65720000000000000000000000000000\n        /* \"#utility.yul\":7025:7026   */\n      0x00\n        /* \"#utility.yul\":7020:7023   */\n      dup4\n        /* \"#utility.yul\":7016:7027   */\n      add\n        /* \"#utility.yul\":7009:7050   */\n      mstore\n        /* \"#utility.yul\":7076:7078   */\n      0x20\n        /* \"#utility.yul\":7071:7074   */\n      dup3\n        /* \"#utility.yul\":7067:7079   */\n      add\n        /* \"#utility.yul\":7060:7079   */\n      swap1\n      pop\n        /* \"#utility.yul\":6915:7085   */\n      swap2\n      swap1\n      pop\n      jump\t// out\n        /* \"#utility.yul\":7149:7750   */\n    tag_198:\n      0x00\n        /* \"#utility.yul\":7294:7298   */\n      0x40\n        /* \"#utility.yul\":7289:7292   */\n      dup4\n        /* \"#utility.yul\":7285:7299   */\n      add\n        /* \"#utility.yul\":7381:7385   */\n      0x00\n        /* \"#utility.yul\":7374:7379   */\n      dup4\n        /* \"#utility.yul\":7370:7386   */\n      add\n        /* \"#utility.yul\":7364:7387   */\n      mload\n        /* \"#utility.yul\":7434:7437   */\n      dup5\n        /* \"#utility.yul\":7428:7432   */\n      dup3\n        /* \"#utility.yul\":7424:7438   */\n      sub\n        /* \"#utility.yul\":7417:7421   */\n      0x00\n        /* \"#utility.yul\":7412:7415   */\n      dup7\n        /* \"#utility.yul\":7408:7422   */\n      add\n        /* \"#utility.yul\":7401:7439   */\n      mstore\n        /* \"#utility.yul\":7460:7533   */\n      tag_267\n        /* \"#utility.yul\":7528:7532   */\n      dup3\n        /* \"#utility.yul\":7514:7526   */\n      dup3\n        /* \"#utility.yul\":7460:7533   */\n      tag_194\n      jump\t// in\n    tag_267:\n        /* \"#utility.yul\":7452:7533   */\n      swap2\n      pop\n        /* \"#utility.yul\":7309:7544   */\n      pop\n        /* \"#utility.yul\":7631:7635   */\n      0x20\n        /* \"#utility.yul\":7624:7629   */\n      dup4\n        /* \"#utility.yul\":7620:7636   */\n      add\n        /* \"#utility.yul\":7614:7637   */\n      mload\n        /* \"#utility.yul\":7650:7713   */\n      tag_268\n        /* \"#utility.yul\":7707:7711   */\n      0x20\n        /* \"#utility.yul\":7702:7705   */\n      dup7\n        /* \"#utility.yul\":7698:7712   */\n      add\n        /* \"#utility.yul\":7684:7696   */\n      dup3\n        /* \"#utility.yul\":7650:7713   */\n      tag_269\n      jump\t// in\n    tag_268:\n        /* \"#utility.yul\":7554:7723   */\n      pop\n        /* \"#utility.yul\":7740:7744   */\n      dup1\n        /* \"#utility.yul\":7733:7744   */\n      swap2\n      pop\n        /* \"#utility.yul\":7263:7750   */\n      pop\n      swap3\n      swap2\n      pop\n      pop\n      jump\t// out\n        /* \"#utility.yul\":7756:7864   */\n    tag_269:\n        /* \"#utility.yul\":7833:7857   */\n      tag_271\n        /* \"#utility.yul\":7851:7856   */\n      dup2\n        /* \"#utility.yul\":7833:7857   */\n      tag_272\n      jump\t// in\n    tag_271:\n        /* \"#utility.yul\":7828:7831   */\n      dup3\n        /* \"#utility.yul\":7821:7858   */\n      mstore\n        /* \"#utility.yul\":7811:7864   */\n      pop\n      pop\n      jump\t// out\n        /* \"#utility.yul\":7870:7988   */\n    tag_273:\n        /* \"#utility.yul\":7957:7981   */\n      tag_275\n        /* \"#utility.yul\":7975:7980   */\n      dup2\n        /* \"#utility.yul\":7957:7981   */\n      tag_272\n      jump\t// in\n    tag_275:\n        /* \"#utility.yul\":7952:7955   */\n      dup3\n        /* \"#utility.yul\":7945:7982   */\n      mstore\n        /* \"#utility.yul\":7935:7988   */\n      pop\n      pop\n      jump\t// out\n        /* \"#utility.yul\":7994:8216   */\n    tag_51:\n      0x00\n        /* \"#utility.yul\":8125:8127   */\n      0x20\n        /* \"#utility.yul\":8114:8123   */\n      dup3\n        /* \"#utility.yul\":8110:8128   */\n      add\n        /* \"#utility.yul\":8102:8128   */\n      swap1\n      pop\n        /* \"#utility.yul\":8138:8209   */\n      tag_277\n        /* \"#utility.yul\":8206:8207   */\n      0x00\n        /* \"#utility.yul\":8195:8204   */\n      dup4\n        /* \"#utility.yul\":8191:8208   */\n      add\n        /* \"#utility.yul\":8182:8188   */\n      dup5\n        /* \"#utility.yul\":8138:8209   */\n      tag_199\n      jump\t// in\n    tag_277:\n        /* \"#utility.yul\":8092:8216   */\n      swap3\n      swap2\n      pop\n      pop\n      jump\t// out\n        /* \"#utility.yul\":8222:8635   */\n    tag_60:\n      0x00\n        /* \"#utility.yul\":8423:8425   */\n      0x20\n        /* \"#utility.yul\":8412:8421   */\n      dup3\n        /* \"#utility.yul\":8408:8426   */\n      add\n        /* \"#utility.yul\":8400:8426   */\n      swap1\n      pop\n        /* \"#utility.yul\":8472:8481   */\n      dup2\n        /* \"#utility.yul\":8466:8470   */\n      dup2\n        /* \"#utility.yul\":8462:8482   */\n      sub\n        /* \"#utility.yul\":8458:8459   */\n      0x00\n        /* \"#utility.yul\":8447:8456   */\n      dup4\n        /* \"#utility.yul\":8443:8460   */\n      add\n        /* \"#utility.yul\":8436:8483   */\n      mstore\n        /* \"#utility.yul\":8500:8628   */\n      tag_279\n        /* \"#utility.yul\":8623:8627   */\n      dup2\n        /* \"#utility.yul\":8614:8620   */\n      dup5\n        /* \"#utility.yul\":8500:8628   */\n      tag_203\n      jump\t// in\n    tag_279:\n        /* \"#utility.yul\":8492:8628   */\n      swap1\n      pop\n        /* \"#utility.yul\":8390:8635   */\n      swap3\n      swap2\n      pop\n      pop\n      jump\t// out\n        /* \"#utility.yul\":8641:9114   */\n    tag_23:\n      0x00\n        /* \"#utility.yul\":8872:8874   */\n      0x20\n        /* \"#utility.yul\":8861:8870   */\n      dup3\n        /* \"#utility.yul\":8857:8875   */\n      add\n        /* \"#utility.yul\":8849:8875   */\n      swap1\n      pop\n        /* \"#utility.yul\":8921:8930   */\n      dup2\n        /* \"#utility.yul\":8915:8919   */\n      dup2\n        /* \"#utility.yul\":8911:8931   */\n      sub\n        /* \"#utility.yul\":8907:8908   */\n      0x00\n        /* \"#utility.yul\":8896:8905   */\n      dup4\n        /* \"#utility.yul\":8892:8909   */\n      add\n        /* \"#utility.yul\":8885:8932   */\n      mstore\n        /* \"#utility.yul\":8949:9107   */\n      tag_281\n        /* \"#utility.yul\":9102:9106   */\n      dup2\n        /* \"#utility.yul\":9093:9099   */\n      dup5\n        /* \"#utility.yul\":8949:9107   */\n      tag_217\n      jump\t// in\n    tag_281:\n        /* \"#utility.yul\":8941:9107   */\n      swap1\n      pop\n        /* \"#utility.yul\":8839:9114   */\n      swap3\n      swap2\n      pop\n      pop\n      jump\t// out\n        /* \"#utility.yul\":9120:9330   */\n    tag_29:\n      0x00\n        /* \"#utility.yul\":9245:9247   */\n      0x20\n        /* \"#utility.yul\":9234:9243   */\n      dup3\n        /* \"#utility.yul\":9230:9248   */\n      add\n        /* \"#utility.yul\":9222:9248   */\n      swap1\n      pop\n        /* \"#utility.yul\":9258:9323   */\n      tag_283\n        /* \"#utility.yul\":9320:9321   */\n      0x00\n        /* \"#utility.yul\":9309:9318   */\n      dup4\n        /* \"#utility.yul\":9305:9322   */\n      add\n        /* \"#utility.yul\":9296:9302   */\n      dup5\n        /* \"#utility.yul\":9258:9323   */\n      tag_231\n      jump\t// in\n    tag_283:\n        /* \"#utility.yul\":9212:9330   */\n      swap3\n      swap2\n      pop\n      pop\n      jump\t// out\n        /* \"#utility.yul\":9336:9759   */\n    tag_40:\n      0x00\n        /* \"#utility.yul\":9515:9517   */\n      0x40\n        /* \"#utility.yul\":9504:9513   */\n      dup3\n        /* \"#utility.yul\":9500:9518   */\n      add\n        /* \"#utility.yul\":9492:9518   */\n      swap1\n      pop\n        /* \"#utility.yul\":9564:9573   */\n      dup2\n        /* \"#utility.yul\":9558:9562   */\n      dup2\n        /* \"#utility.yul\":9554:9574   */\n      sub\n        /* \"#utility.yul\":9550:9551   */\n      0x00\n        /* \"#utility.yul\":9539:9548   */\n      dup4\n        /* \"#utility.yul\":9535:9552   */\n      add\n        /* \"#utility.yul\":9528:9575   */\n      mstore\n        /* \"#utility.yul\":9592:9670   */\n      tag_285\n        /* \"#utility.yul\":9665:9669   */\n      dup2\n        /* \"#utility.yul\":9656:9662   */\n      dup6\n        /* \"#utility.yul\":9592:9670   */\n      tag_244\n      jump\t// in\n    tag_285:\n        /* \"#utility.yul\":9584:9670   */\n      swap1\n      pop\n        /* \"#utility.yul\":9680:9752   */\n      tag_286\n        /* \"#utility.yul\":9748:9750   */\n      0x20\n        /* \"#utility.yul\":9737:9746   */\n      dup4\n        /* \"#utility.yul\":9733:9751   */\n      add\n        /* \"#utility.yul\":9724:9730   */\n      dup5\n        /* \"#utility.yul\":9680:9752   */\n      tag_273\n      jump\t// in\n    tag_286:\n        /* \"#utility.yul\":9482:9759   */\n      swap4\n      swap3\n      pop\n      pop\n      pop\n      jump\t// out\n        /* \"#utility.yul\":9765:10184   */\n    tag_68:\n      0x00\n        /* \"#utility.yul\":9969:9971   */\n      0x20\n        /* \"#utility.yul\":9958:9967   */\n      dup3\n        /* \"#utility.yul\":9954:9972   */\n      add\n        /* \"#utility.yul\":9946:9972   */\n      swap1\n      pop\n        /* \"#utility.yul\":10018:10027   */\n      dup2\n        /* \"#utility.yul\":10012:10016   */\n      dup2\n        /* \"#utility.yul\":10008:10028   */\n      sub\n        /* \"#utility.yul\":10004:10005   */\n      0x00\n        /* \"#utility.yul\":9993:10002   */\n      dup4\n        /* \"#utility.yul\":9989:10006   */\n      add\n        /* \"#utility.yul\":9982:10029   */\n      mstore\n        /* \"#utility.yul\":10046:10177   */\n      tag_288\n        /* \"#utility.yul\":10172:10176   */\n      dup2\n        /* \"#utility.yul\":10046:10177   */\n      tag_251\n      jump\t// in\n    tag_288:\n        /* \"#utility.yul\":10038:10177   */\n      swap1\n      pop\n        /* \"#utility.yul\":9936:10184   */\n      swap2\n      swap1\n      pop\n      jump\t// out\n        /* \"#utility.yul\":10190:10609   */\n    tag_71:\n      0x00\n        /* \"#utility.yul\":10394:10396   */\n      0x20\n        /* \"#utility.yul\":10383:10392   */\n      dup3\n        /* \"#utility.yul\":10379:10397   */\n      add\n        /* \"#utility.yul\":10371:10397   */\n      swap1\n      pop\n        /* \"#utility.yul\":10443:10452   */\n      dup2\n        /* \"#utility.yul\":10437:10441   */\n      dup2\n        /* \"#utility.yul\":10433:10453   */\n      sub\n        /* \"#utility.yul\":10429:10430   */\n      0x00\n        /* \"#utility.yul\":10418:10427   */\n      dup4\n        /* \"#utility.yul\":10414:10431   */\n      add\n        /* \"#utility.yul\":10407:10454   */\n      mstore\n        /* \"#utility.yul\":10471:10602   */\n      tag_290\n        /* \"#utility.yul\":10597:10601   */\n      dup2\n        /* \"#utility.yul\":10471:10602   */\n      tag_254\n      jump\t// in\n    tag_290:\n        /* \"#utility.yul\":10463:10602   */\n      swap1\n      pop\n        /* \"#utility.yul\":10361:10609   */\n      swap2\n      swap1\n      pop\n      jump\t// out\n        /* \"#utility.yul\":10615:11034   */\n    tag_64:\n      0x00\n        /* \"#utility.yul\":10819:10821   */\n      0x20\n        /* \"#utility.yul\":10808:10817   */\n      dup3\n        /* \"#utility.yul\":10804:10822   */\n      add\n        /* \"#utility.yul\":10796:10822   */\n      swap1\n      pop\n        /* \"#utility.yul\":10868:10877   */\n      dup2\n        /* \"#utility.yul\":10862:10866   */\n      dup2\n        /* \"#utility.yul\":10858:10878   */\n      sub\n        /* \"#utility.yul\":10854:10855   */\n      0x00\n        /* \"#utility.yul\":10843:10852   */\n      dup4\n        /* \"#utility.yul\":10839:10856   */\n      add\n        /* \"#utility.yul\":10832:10879   */\n      mstore\n        /* \"#utility.yul\":10896:11027   */\n      tag_292\n        /* \"#utility.yul\":11022:11026   */\n      dup2\n        /* \"#utility.yul\":10896:11027   */\n      tag_257\n      jump\t// in\n    tag_292:\n        /* \"#utility.yul\":10888:11027   */\n      swap1\n      pop\n        /* \"#utility.yul\":10786:11034   */\n      swap2\n      swap1\n      pop\n      jump\t// out\n        /* \"#utility.yul\":11040:11459   */\n    tag_109:\n      0x00\n        /* \"#utility.yul\":11244:11246   */\n      0x20\n        /* \"#utility.yul\":11233:11242   */\n      dup3\n        /* \"#utility.yul\":11229:11247   */\n      add\n        /* \"#utility.yul\":11221:11247   */\n      swap1\n      pop\n        /* \"#utility.yul\":11293:11302   */\n      dup2\n        /* \"#utility.yul\":11287:11291   */\n      dup2\n        /* \"#utility.yul\":11283:11303   */\n      sub\n        /* \"#utility.yul\":11279:11280   */\n      0x00\n        /* \"#utility.yul\":11268:11277   */\n      dup4\n        /* \"#utility.yul\":11264:11281   */\n      add\n        /* \"#utility.yul\":11257:11304   */\n      mstore\n        /* \"#utility.yul\":11321:11452   */\n      tag_294\n        /* \"#utility.yul\":11447:11451   */\n      dup2\n        /* \"#utility.yul\":11321:11452   */\n      tag_260\n      jump\t// in\n    tag_294:\n        /* \"#utility.yul\":11313:11452   */\n      swap1\n      pop\n        /* \"#utility.yul\":11211:11459   */\n      swap2\n      swap1\n      pop\n      jump\t// out\n        /* \"#utility.yul\":11465:11884   */\n    tag_89:\n      0x00\n        /* \"#utility.yul\":11669:11671   */\n      0x20\n        /* \"#utility.yul\":11658:11667   */\n      dup3\n        /* \"#utility.yul\":11654:11672   */\n      add\n        /* \"#utility.yul\":11646:11672   */\n      swap1\n      pop\n        /* \"#utility.yul\":11718:11727   */\n      dup2\n        /* \"#utility.yul\":11712:11716   */\n      dup2\n        /* \"#utility.yul\":11708:11728   */\n      sub\n        /* \"#utility.yul\":11704:11705   */\n      0x00\n        /* \"#utility.yul\":11693:11702   */\n      dup4\n        /* \"#utility.yul\":11689:11706   */\n      add\n        /* \"#utility.yul\":11682:11729   */\n      mstore\n        /* \"#utility.yul\":11746:11877   */\n      tag_296\n        /* \"#utility.yul\":11872:11876   */\n      dup2\n        /* \"#utility.yul\":11746:11877   */\n      tag_263\n      jump\t// in\n    tag_296:\n        /* \"#utility.yul\":11738:11877   */\n      swap1\n      pop\n        /* \"#utility.yul\":11636:11884   */\n      swap2\n      swap1\n      pop\n      jump\t// out\n        /* \"#utility.yul\":11890:12112   */\n    tag_35:\n      0x00\n        /* \"#utility.yul\":12021:12023   */\n      0x20\n        /* \"#utility.yul\":12010:12019   */\n      dup3\n        /* \"#utility.yul\":12006:12024   */\n      add\n        /* \"#utility.yul\":11998:12024   */\n      swap1\n      pop\n        /* \"#utility.yul\":12034:12105   */\n      tag_298\n        /* \"#utility.yul\":12102:12103   */\n      0x00\n        /* \"#utility.yul\":12091:12100   */\n      dup4\n        /* \"#utility.yul\":12087:12104   */\n      add\n        /* \"#utility.yul\":12078:12084   */\n      dup5\n        /* \"#utility.yul\":12034:12105   */\n      tag_273\n      jump\t// in\n    tag_298:\n        /* \"#utility.yul\":11988:12112   */\n      swap3\n      swap2\n      pop\n      pop\n      jump\t// out\n        /* \"#utility.yul\":12118:12401   */\n    tag_165:\n      0x00\n        /* \"#utility.yul\":12184:12186   */\n      0x40\n        /* \"#utility.yul\":12178:12187   */\n      mload\n        /* \"#utility.yul\":12168:12187   */\n      swap1\n      pop\n        /* \"#utility.yul\":12226:12230   */\n      dup2\n        /* \"#utility.yul\":12218:12224   */\n      dup2\n        /* \"#utility.yul\":12214:12231   */\n      add\n        /* \"#utility.yul\":12333:12339   */\n      dup2\n        /* \"#utility.yul\":12321:12331   */\n      dup2\n        /* \"#utility.yul\":12318:12340   */\n      lt\n        /* \"#utility.yul\":12297:12315   */\n      0xffffffffffffffff\n        /* \"#utility.yul\":12285:12295   */\n      dup3\n        /* \"#utility.yul\":12282:12316   */\n      gt\n        /* \"#utility.yul\":12279:12341   */\n      or\n        /* \"#utility.yul\":12276:12278   */\n      iszero\n      tag_300\n      jumpi\n        /* \"#utility.yul\":12344:12362   */\n      tag_301\n      tag_302\n      jump\t// in\n    tag_301:\n        /* \"#utility.yul\":12276:12278   */\n    tag_300:\n        /* \"#utility.yul\":12384:12394   */\n      dup1\n        /* \"#utility.yul\":12380:12382   */\n      0x40\n        /* \"#utility.yul\":12373:12395   */\n      mstore\n        /* \"#utility.yul\":12158:12401   */\n      pop\n      swap2\n      swap1\n      pop\n      jump\t// out\n        /* \"#utility.yul\":12407:12739   */\n    tag_164:\n      0x00\n        /* \"#utility.yul\":12559:12577   */\n      0xffffffffffffffff\n        /* \"#utility.yul\":12551:12557   */\n      dup3\n        /* \"#utility.yul\":12548:12578   */\n      gt\n        /* \"#utility.yul\":12545:12547   */\n      iszero\n      tag_304\n      jumpi\n        /* \"#utility.yul\":12581:12599   */\n      tag_305\n      tag_302\n      jump\t// in\n    tag_305:\n        /* \"#utility.yul\":12545:12547   */\n    tag_304:\n        /* \"#utility.yul\":12666:12670   */\n      0x1f\n        /* \"#utility.yul\":12662:12671   */\n      not\n        /* \"#utility.yul\":12655:12659   */\n      0x1f\n        /* \"#utility.yul\":12647:12653   */\n      dup4\n        /* \"#utility.yul\":12643:12660   */\n      add\n        /* \"#utility.yul\":12639:12672   */\n      and\n        /* \"#utility.yul\":12631:12672   */\n      swap1\n      pop\n        /* \"#utility.yul\":12727:12731   */\n      0x20\n        /* \"#utility.yul\":12721:12725   */\n      dup2\n        /* \"#utility.yul\":12717:12732   */\n      add\n        /* \"#utility.yul\":12709:12732   */\n      swap1\n      pop\n        /* \"#utility.yul\":12474:12739   */\n      swap2\n      swap1\n      pop\n      jump\t// out\n        /* \"#utility.yul\":12745:12887   */\n    tag_210:\n      0x00\n        /* \"#utility.yul\":12845:12848   */\n      dup2\n        /* \"#utility.yul\":12837:12848   */\n      swap1\n      pop\n        /* \"#utility.yul\":12875:12879   */\n      0x20\n        /* \"#utility.yul\":12870:12873   */\n      dup3\n        /* \"#utility.yul\":12866:12880   */\n      add\n        /* \"#utility.yul\":12858:12880   */\n      swap1\n      pop\n        /* \"#utility.yul\":12827:12887   */\n      swap2\n      swap1\n      pop\n      jump\t// out\n        /* \"#utility.yul\":12893:13050   */\n    tag_224:\n      0x00\n        /* \"#utility.yul\":13008:13011   */\n      dup2\n        /* \"#utility.yul\":13000:13011   */\n      swap1\n      pop\n        /* \"#utility.yul\":13038:13042   */\n      0x20\n        /* \"#utility.yul\":13033:13036   */\n      dup3\n        /* \"#utility.yul\":13029:13043   */\n      add\n        /* \"#utility.yul\":13021:13043   */\n      swap1\n      pop\n        /* \"#utility.yul\":12990:13050   */\n      swap2\n      swap1\n      pop\n      jump\t// out\n        /* \"#utility.yul\":13056:13180   */\n    tag_206:\n      0x00\n        /* \"#utility.yul\":13167:13172   */\n      dup2\n        /* \"#utility.yul\":13161:13173   */\n      mload\n        /* \"#utility.yul\":13151:13173   */\n      swap1\n      pop\n        /* \"#utility.yul\":13140:13180   */\n      swap2\n      swap1\n      pop\n      jump\t// out\n        /* \"#utility.yul\":13186:13325   */\n    tag_220:\n      0x00\n        /* \"#utility.yul\":13312:13317   */\n      dup2\n        /* \"#utility.yul\":13306:13318   */\n      mload\n        /* \"#utility.yul\":13296:13318   */\n      swap1\n      pop\n        /* \"#utility.yul\":13285:13325   */\n      swap2\n      swap1\n      pop\n      jump\t// out\n        /* \"#utility.yul\":13331:13430   */\n    tag_237:\n      0x00\n        /* \"#utility.yul\":13417:13422   */\n      dup2\n        /* \"#utility.yul\":13411:13423   */\n      mload\n        /* \"#utility.yul\":13401:13423   */\n      swap1\n      pop\n        /* \"#utility.yul\":13390:13430   */\n      swap2\n      swap1\n      pop\n      jump\t// out\n        /* \"#utility.yul\":13436:13559   */\n    tag_216:\n      0x00\n        /* \"#utility.yul\":13548:13552   */\n      0x20\n        /* \"#utility.yul\":13543:13546   */\n      dup3\n        /* \"#utility.yul\":13539:13553   */\n      add\n        /* \"#utility.yul\":13531:13553   */\n      swap1\n      pop\n        /* \"#utility.yul\":13521:13559   */\n      swap2\n      swap1\n      pop\n      jump\t// out\n        /* \"#utility.yul\":13565:13703   */\n    tag_230:\n      0x00\n        /* \"#utility.yul\":13692:13696   */\n      0x20\n        /* \"#utility.yul\":13687:13690   */\n      dup3\n        /* \"#utility.yul\":13683:13697   */\n      add\n        /* \"#utility.yul\":13675:13697   */\n      swap1\n      pop\n        /* \"#utility.yul\":13665:13703   */\n      swap2\n      swap1\n      pop\n      jump\t// out\n        /* \"#utility.yul\":13709:13903   */\n    tag_208:\n      0x00\n        /* \"#utility.yul\":13852:13858   */\n      dup3\n        /* \"#utility.yul\":13847:13850   */\n      dup3\n        /* \"#utility.yul\":13840:13859   */\n      mstore\n        /* \"#utility.yul\":13892:13896   */\n      0x20\n        /* \"#utility.yul\":13887:13890   */\n      dup3\n        /* \"#utility.yul\":13883:13897   */\n      add\n        /* \"#utility.yul\":13868:13897   */\n      swap1\n      pop\n        /* \"#utility.yul\":13830:13903   */\n      swap3\n      swap2\n      pop\n      pop\n      jump\t// out\n        /* \"#utility.yul\":13909:14118   */\n    tag_222:\n      0x00\n        /* \"#utility.yul\":14067:14073   */\n      dup3\n        /* \"#utility.yul\":14062:14065   */\n      dup3\n        /* \"#utility.yul\":14055:14074   */\n      mstore\n        /* \"#utility.yul\":14107:14111   */\n      0x20\n        /* \"#utility.yul\":14102:14105   */\n      dup3\n        /* \"#utility.yul\":14098:14112   */\n      add\n        /* \"#utility.yul\":14083:14112   */\n      swap1\n      pop\n        /* \"#utility.yul\":14045:14118   */\n      swap3\n      swap2\n      pop\n      pop\n      jump\t// out\n        /* \"#utility.yul\":14124:14283   */\n    tag_239:\n      0x00\n        /* \"#utility.yul\":14232:14238   */\n      dup3\n        /* \"#utility.yul\":14227:14230   */\n      dup3\n        /* \"#utility.yul\":14220:14239   */\n      mstore\n        /* \"#utility.yul\":14272:14276   */\n      0x20\n        /* \"#utility.yul\":14267:14270   */\n      dup3\n        /* \"#utility.yul\":14263:14277   */\n      add\n        /* \"#utility.yul\":14248:14277   */\n      swap1\n      pop\n        /* \"#utility.yul\":14210:14283   */\n      swap3\n      swap2\n      pop\n      pop\n      jump\t// out\n        /* \"#utility.yul\":14289:14458   */\n    tag_248:\n      0x00\n        /* \"#utility.yul\":14407:14413   */\n      dup3\n        /* \"#utility.yul\":14402:14405   */\n      dup3\n        /* \"#utility.yul\":14395:14414   */\n      mstore\n        /* \"#utility.yul\":14447:14451   */\n      0x20\n        /* \"#utility.yul\":14442:14445   */\n      dup3\n        /* \"#utility.yul\":14438:14452   */\n      add\n        /* \"#utility.yul\":14423:14452   */\n      swap1\n      pop\n        /* \"#utility.yul\":14385:14458   */\n      swap3\n      swap2\n      pop\n      pop\n      jump\t// out\n        /* \"#utility.yul\":14464:14769   */\n    tag_75:\n      0x00\n        /* \"#utility.yul\":14523:14543   */\n      tag_318\n        /* \"#utility.yul\":14541:14542   */\n      dup3\n        /* \"#utility.yul\":14523:14543   */\n      tag_272\n      jump\t// in\n    tag_318:\n        /* \"#utility.yul\":14518:14543   */\n      swap2\n      pop\n        /* \"#utility.yul\":14557:14577   */\n      tag_319\n        /* \"#utility.yul\":14575:14576   */\n      dup4\n        /* \"#utility.yul\":14557:14577   */\n      tag_272\n      jump\t// in\n    tag_319:\n        /* \"#utility.yul\":14552:14577   */\n      swap3\n      pop\n        /* \"#utility.yul\":14711:14712   */\n      dup3\n        /* \"#utility.yul\":14643:14709   */\n      0xffffffffffffffffffffffffffffffffffffffffffffffffffffffffffffffff\n        /* \"#utility.yul\":14639:14713   */\n      sub\n        /* \"#utility.yul\":14636:14637   */\n      dup3\n        /* \"#utility.yul\":14633:14714   */\n      gt\n        /* \"#utility.yul\":14630:14632   */\n      iszero\n      tag_320\n      jumpi\n        /* \"#utility.yul\":14717:14735   */\n      tag_321\n      tag_322\n      jump\t// in\n    tag_321:\n        /* \"#utility.yul\":14630:14632   */\n    tag_320:\n        /* \"#utility.yul\":14761:14762   */\n      dup3\n        /* \"#utility.yul\":14758:14759   */\n      dup3\n        /* \"#utility.yul\":14754:14763   */\n      add\n        /* \"#utility.yul\":14747:14763   */\n      swap1\n      pop\n        /* \"#utility.yul\":14508:14769   */\n      swap3\n      swap2\n      pop\n      pop\n      jump\t// out\n        /* \"#utility.yul\":14775:14871   */\n    tag_202:\n      0x00\n        /* \"#utility.yul\":14841:14865   */\n      tag_324\n        /* \"#utility.yul\":14859:14864   */\n      dup3\n        /* \"#utility.yul\":14841:14865   */\n      tag_325\n      jump\t// in\n    tag_324:\n        /* \"#utility.yul\":14830:14865   */\n      swap1\n      pop\n        /* \"#utility.yul\":14820:14871   */\n      swap2\n      swap1\n      pop\n      jump\t// out\n        /* \"#utility.yul\":14877:14967   */\n    tag_234:\n      0x00\n        /* \"#utility.yul\":14954:14959   */\n      dup2\n        /* \"#utility.yul\":14947:14960   */\n      iszero\n        /* \"#utility.yul\":14940:14961   */\n      iszero\n        /* \"#utility.yul\":14929:14961   */\n      swap1\n      pop\n        /* \"#utility.yul\":14919:14967   */\n      swap2\n      swap1\n      pop\n      jump\t// out\n        /* \"#utility.yul\":14973:15099   */\n    tag_325:\n      0x00\n        /* \"#utility.yul\":15050:15092   */\n      0xffffffffffffffffffffffffffffffffffffffff\n        /* \"#utility.yul\":15043:15048   */\n      dup3\n        /* \"#utility.yul\":15039:15093   */\n      and\n        /* \"#utility.yul\":15028:15093   */\n      swap1\n      pop\n        /* \"#utility.yul\":15018:15099   */\n      swap2\n      swap1\n      pop\n      jump\t// out\n        /* \"#utility.yul\":15105:15182   */\n    tag_272:\n      0x00\n        /* \"#utility.yul\":15171:15176   */\n      dup2\n        /* \"#utility.yul\":15160:15176   */\n      swap1\n      pop\n        /* \"#utility.yul\":15150:15182   */\n      swap2\n      swap1\n      pop\n      jump\t// out\n        /* \"#utility.yul\":15188:15342   */\n    tag_168:\n        /* \"#utility.yul\":15272:15278   */\n      dup3\n        /* \"#utility.yul\":15267:15270   */\n      dup2\n        /* \"#utility.yul\":15262:15265   */\n      dup4\n        /* \"#utility.yul\":15249:15279   */\n      calldatacopy\n        /* \"#utility.yul\":15334:15335   */\n      0x00\n        /* \"#utility.yul\":15325:15331   */\n      dup4\n        /* \"#utility.yul\":15320:15323   */\n      dup4\n        /* \"#utility.yul\":15316:15332   */\n      add\n        /* \"#utility.yul\":15309:15336   */\n      mstore\n        /* \"#utility.yul\":15239:15342   */\n      pop\n      pop\n      pop\n      jump\t// out\n        /* \"#utility.yul\":15348:15655   */\n    tag_241:\n        /* \"#utility.yul\":15416:15417   */\n      0x00\n        /* \"#utility.yul\":15426:15539   */\n    tag_331:\n        /* \"#utility.yul\":15440:15446   */\n      dup4\n        /* \"#utility.yul\":15437:15438   */\n      dup2\n        /* \"#utility.yul\":15434:15447   */\n      lt\n        /* \"#utility.yul\":15426:15539   */\n      iszero\n      tag_333\n      jumpi\n        /* \"#utility.yul\":15525:15526   */\n      dup1\n        /* \"#utility.yul\":15520:15523   */\n      dup3\n        /* \"#utility.yul\":15516:15527   */\n      add\n        /* \"#utility.yul\":15510:15528   */\n      mload\n        /* \"#utility.yul\":15506:15507   */\n      dup2\n        /* \"#utility.yul\":15501:15504   */\n      dup5\n        /* \"#utility.yul\":15497:15508   */\n      add\n        /* \"#utility.yul\":15490:15529   */\n      mstore\n        /* \"#utility.yul\":15462:15464   */\n      0x20\n        /* \"#utility.yul\":15459:15460   */\n      dup2\n        /* \"#utility.yul\":15455:15465   */\n      add\n        /* \"#utility.yul\":15450:15465   */\n      swap1\n      pop\n        /* \"#utility.yul\":15426:15539   */\n      jump(tag_331)\n    tag_333:\n        /* \"#utility.yul\":15557:15563   */\n      dup4\n        /* \"#utility.yul\":15554:15555   */\n      dup2\n        /* \"#utility.yul\":15551:15564   */\n      gt\n        /* \"#utility.yul\":15548:15550   */\n      iszero\n      tag_334\n      jumpi\n        /* \"#utility.yul\":15637:15638   */\n      0x00\n        /* \"#utility.yul\":15628:15634   */\n      dup5\n        /* \"#utility.yul\":15623:15626   */\n      dup5\n        /* \"#utility.yul\":15619:15635   */\n      add\n        /* \"#utility.yul\":15612:15639   */\n      mstore\n        /* \"#utility.yul\":15548:15550   */\n    tag_334:\n        /* \"#utility.yul\":15397:15655   */\n      pop\n      pop\n      pop\n      pop\n      jump\t// out\n        /* \"#utility.yul\":15661:15981   */\n    tag_81:\n      0x00\n        /* \"#utility.yul\":15742:15743   */\n      0x02\n        /* \"#utility.yul\":15736:15740   */\n      dup3\n        /* \"#utility.yul\":15732:15744   */\n      div\n        /* \"#utility.yul\":15722:15744   */\n      swap1\n      pop\n        /* \"#utility.yul\":15789:15790   */\n      0x01\n        /* \"#utility.yul\":15783:15787   */\n      dup3\n        /* \"#utility.yul\":15779:15791   */\n      and\n        /* \"#utility.yul\":15810:15828   */\n      dup1\n        /* \"#utility.yul\":15800:15802   */\n      tag_336\n      jumpi\n        /* \"#utility.yul\":15866:15870   */\n      0x7f\n        /* \"#utility.yul\":15858:15864   */\n      dup3\n        /* \"#utility.yul\":15854:15871   */\n      and\n        /* \"#utility.yul\":15844:15871   */\n      swap2\n      pop\n        /* \"#utility.yul\":15800:15802   */\n    tag_336:\n        /* \"#utility.yul\":15928:15930   */\n      0x20\n        /* \"#utility.yul\":15920:15926   */\n      dup3\n        /* \"#utility.yul\":15917:15931   */\n      lt\n        /* \"#utility.yul\":15897:15915   */\n      dup2\n        /* \"#utility.yul\":15894:15932   */\n      eq\n        /* \"#utility.yul\":15891:15893   */\n      iszero\n      tag_337\n      jumpi\n        /* \"#utility.yul\":15947:15965   */\n      tag_338\n      tag_339\n      jump\t// in\n    tag_338:\n        /* \"#utility.yul\":15891:15893   */\n    tag_337:\n        /* \"#utility.yul\":15712:15981   */\n      pop\n      swap2\n      swap1\n      pop\n      jump\t// out\n        /* \"#utility.yul\":15987:16220   */\n    tag_119:\n      0x00\n        /* \"#utility.yul\":16049:16073   */\n      tag_341\n        /* \"#utility.yul\":16067:16072   */\n      dup3\n        /* \"#utility.yul\":16049:16073   */\n      tag_272\n      jump\t// in\n    tag_341:\n        /* \"#utility.yul\":16040:16073   */\n      swap2\n      pop\n        /* \"#utility.yul\":16095:16161   */\n      0xffffffffffffffffffffffffffffffffffffffffffffffffffffffffffffffff\n        /* \"#utility.yul\":16088:16093   */\n      dup3\n        /* \"#utility.yul\":16085:16162   */\n      eq\n        /* \"#utility.yul\":16082:16084   */\n      iszero\n      tag_342\n      jumpi\n        /* \"#utility.yul\":16165:16183   */\n      tag_343\n      tag_322\n      jump\t// in\n    tag_343:\n        /* \"#utility.yul\":16082:16084   */\n    tag_342:\n        /* \"#utility.yul\":16212:16213   */\n      0x01\n        /* \"#utility.yul\":16205:16210   */\n      dup3\n        /* \"#utility.yul\":16201:16214   */\n      add\n        /* \"#utility.yul\":16194:16214   */\n      swap1\n      pop\n        /* \"#utility.yul\":16030:16220   */\n      swap2\n      swap1\n      pop\n      jump\t// out\n        /* \"#utility.yul\":16226:16406   */\n    tag_322:\n        /* \"#utility.yul\":16274:16351   */\n      0x4e487b7100000000000000000000000000000000000000000000000000000000\n        /* \"#utility.yul\":16271:16272   */\n      0x00\n        /* \"#utility.yul\":16264:16352   */\n      mstore\n        /* \"#utility.yul\":16371:16375   */\n      0x11\n        /* \"#utility.yul\":16368:16369   */\n      0x04\n        /* \"#utility.yul\":16361:16376   */\n      mstore\n        /* \"#utility.yul\":16395:16399   */\n      0x24\n        /* \"#utility.yul\":16392:16393   */\n      0x00\n        /* \"#utility.yul\":16385:16400   */\n      revert\n        /* \"#utility.yul\":16412:16592   */\n    tag_339:\n        /* \"#utility.yul\":16460:16537   */\n      0x4e487b7100000000000000000000000000000000000000000000000000000000\n        /* \"#utility.yul\":16457:16458   */\n      0x00\n        /* \"#utility.yul\":16450:16538   */\n      mstore\n        /* \"#utility.yul\":16557:16561   */\n      0x22\n        /* \"#utility.yul\":16554:16555   */\n      0x04\n        /* \"#utility.yul\":16547:16562   */\n      mstore\n        /* \"#utility.yul\":16581:16585   */\n      0x24\n        /* \"#utility.yul\":16578:16579   */\n      0x00\n        /* \"#utility.yul\":16571:16586   */\n      revert\n        /* \"#utility.yul\":16598:16778   */\n    tag_302:\n        /* \"#utility.yul\":16646:16723   */\n      0x4e487b7100000000000000000000000000000000000000000000000000000000\n        /* \"#utility.yul\":16643:16644   */\n      0x00\n        /* \"#utility.yul\":16636:16724   */\n      mstore\n        /* \"#utility.yul\":16743:16747   */\n      0x41\n        /* \"#utility.yul\":16740:16741   */\n      0x04\n        /* \"#utility.yul\":16733:16748   */\n      mstore\n        /* \"#utility.yul\":16767:16771   */\n      0x24\n        /* \"#utility.yul\":16764:16765   */\n      0x00\n        /* \"#utility.yul\":16757:16772   */\n      revert\n        /* \"#utility.yul\":16784:16886   */\n    tag_243:\n      0x00\n        /* \"#utility.yul\":16876:16878   */\n      0x1f\n        /* \"#utility.yul\":16872:16879   */\n      not\n        /* \"#utility.yul\":16867:16869   */\n      0x1f\n        /* \"#utility.yul\":16860:16865   */\n      dup4\n        /* \"#utility.yul\":16856:16870   */\n      add\n        /* \"#utility.yul\":16852:16880   */\n      and\n        /* \"#utility.yul\":16842:16880   */\n      swap1\n      pop\n        /* \"#utility.yul\":16832:16886   */\n      swap2\n      swap1\n      pop\n      jump\t// out\n        /* \"#utility.yul\":16892:17014   */\n    tag_172:\n        /* \"#utility.yul\":16965:16989   */\n      tag_349\n        /* \"#utility.yul\":16983:16988   */\n      dup2\n        /* \"#utility.yul\":16965:16989   */\n      tag_202\n      jump\t// in\n    tag_349:\n        /* \"#utility.yul\":16958:16963   */\n      dup2\n        /* \"#utility.yul\":16955:16990   */\n      eq\n        /* \"#utility.yul\":16945:16947   */\n      tag_350\n      jumpi\n        /* \"#utility.yul\":17004:17005   */\n      0x00\n        /* \"#utility.yul\":17001:17002   */\n      dup1\n        /* \"#utility.yul\":16994:17006   */\n      revert\n        /* \"#utility.yul\":16945:16947   */\n    tag_350:\n        /* \"#utility.yul\":16935:17014   */\n      pop\n      jump\t// out\n        /* \"#utility.yul\":17020:17142   */\n    tag_180:\n        /* \"#utility.yul\":17093:17117   */\n      tag_352\n        /* \"#utility.yul\":17111:17116   */\n      dup2\n        /* \"#utility.yul\":17093:17117   */\n      tag_272\n      jump\t// in\n    tag_352:\n        /* \"#utility.yul\":17086:17091   */\n      dup2\n        /* \"#utility.yul\":17083:17118   */\n      eq\n        /* \"#utility.yul\":17073:17075   */\n      tag_353\n      jumpi\n        /* \"#utility.yul\":17132:17133   */\n      0x00\n        /* \"#utility.yul\":17129:17130   */\n      dup1\n        /* \"#utility.yul\":17122:17134   */\n      revert\n        /* \"#utility.yul\":17073:17075   */\n    tag_353:\n        /* \"#utility.yul\":17063:17142   */\n      pop\n      jump\t// out\n\n    auxdata: 0xa2646970667358221220bd8d491929db2478850118d6c475f813df9541e9188c5e4830a28c5aea8db53164736f6c63430008000033\n}\n",
				"bytecode": {
					"linkReferences": {},
					"object": "608060405234801561001057600080fd5b50336000806101000a81548173ffffffffffffffffffffffffffffffffffffffff021916908373ffffffffffffffffffffffffffffffffffffffff16021790555061163e806100606000396000f3fe608060405234801561001057600080fd5b50600436106100b45760003560e01c8063408e272711610071578063408e27271461017c578063462e91ec1461019a5780638da5cb5b146101b65780638e7ea5b2146101d4578063c3403ddf146101f3578063fdbc4006146101fd576100b4565b80630121b93f146100b957806306a49fce146100d557806309eef43e146100f35780631ec6b60a1461012357806330a563471461012d5780633477ee2e1461014b575b600080fd5b6100d360048036038101906100ce9190610e16565b61021b565b005b6100dd6103fb565b6040516100ea91906111b9565b60405180910390f35b61010d60048036038101906101089190610dac565b6104f6565b60405161011a91906111db565b60405180910390f35b61012b610516565b005b6101356105c1565b60405161014291906112c6565b60405180910390f35b61016560048036038101906101609190610e16565b6105ce565b6040516101739291906111f6565b60405180910390f35b61018461068a565b60405161019191906111db565b60405180910390f35b6101b460048036038101906101af9190610dd5565b61069d565b005b6101be610798565b6040516101cb919061117c565b60405180910390f35b6101dc6107bc565b6040516101ea9291906111f6565b60405180910390f35b6101fb610a0b565b005b610205610ab5565b6040516102129190611197565b60405180910390f35b600060149054906101000a900460ff1661026a576040517f08c379a000000000000000000000000000000000000000000000000000000000815260040161026190611266565b60405180910390fd5b600260003373ffffffffffffffffffffffffffffffffffffffff1673ffffffffffffffffffffffffffffffffffffffff16815260200190815260200160002060009054906101000a900460ff16156102f7576040517f08c379a00000000000000000000000000000000000000000000000000000000081526004016102ee90611226565b60405180910390fd5b600180549050811061033e576040517f08c379a000000000000000000000000000000000000000000000000000000000815260040161033590611246565b60405180910390fd5b6001808281548110610379577f4e487b7100000000000000000000000000000000000000000000000000000000600052603260045260246000fd5b9060005260206000209060020201600101600082825461039991906113e1565b925050819055506001600260003373ffffffffffffffffffffffffffffffffffffffff1673ffffffffffffffffffffffffffffffffffffffff16815260200190815260200160002060006101000a81548160ff02191690831515021790555050565b60606001805480602002602001604051908101604052809291908181526020016000905b828210156104ed5783829060005260206000209060020201604051806040016040529081600082018054610452906114c1565b80601f016020809104026020016040519081016040528092919081815260200182805461047e906114c1565b80156104cb5780601f106104a0576101008083540402835291602001916104cb565b820191906000526020600020905b8154815290600101906020018083116104ae57829003601f168201915b505050505081526020016001820154815250508152602001906001019061041f565b50505050905090565b60026020528060005260406000206000915054906101000a900460ff1681565b60008054906101000a900473ffffffffffffffffffffffffffffffffffffffff1673ffffffffffffffffffffffffffffffffffffffff163373ffffffffffffffffffffffffffffffffffffffff16146105a4576040517f08c379a000000000000000000000000000000000000000000000000000000000815260040161059b906112a6565b60405180910390fd5b6001600060146101000a81548160ff021916908315150217905550565b6000600180549050905090565b600181815481106105de57600080fd5b9060005260206000209060020201600091509050806000018054610601906114c1565b80601f016020809104026020016040519081016040528092919081815260200182805461062d906114c1565b801561067a5780601f1061064f5761010080835404028352916020019161067a565b820191906000526020600020905b81548152906001019060200180831161065d57829003601f168201915b5050505050908060010154905082565b600060149054906101000a900460ff1681565b60008054906101000a900473ffffffffffffffffffffffffffffffffffffffff1673ffffffffffffffffffffffffffffffffffffffff163373ffffffffffffffffffffffffffffffffffffffff161461072b576040517f08c379a0000000000000000000000000000000000000000000000000000000008152600401610722906112a6565b60405180910390fd5b60016040518060400160405280838152602001600081525090806001815401808255809150506001900390600052602060002090600202016000909190919091506000820151816000019080519060200190610788929190610c77565b5060208201518160010155505050565b60008054906101000a900473ffffffffffffffffffffffffffffffffffffffff1681565b606060008060149054906101000a900460ff161561080f576040517f08c379a000000000000000000000000000000000000000000000000000000000815260040161080690611286565b60405180910390fd5b60008080600090505b6001805490508110156108dd578260018281548110610860577f4e487b7100000000000000000000000000000000000000000000000000000000600052603260045260246000fd5b90600052602060002090600202016001015411156108ca57600181815481106108b2577f4e487b7100000000000000000000000000000000000000000000000000000000600052603260045260246000fd5b90600052602060002090600202016001015492508091505b80806108d5906114f3565b915050610818565b5060018181548110610918577f4e487b7100000000000000000000000000000000000000000000000000000000600052603260045260246000fd5b906000526020600020906002020160000160018281548110610963577f4e487b7100000000000000000000000000000000000000000000000000000000600052603260045260246000fd5b906000526020600020906002020160010154818054610981906114c1565b80601f01602080910402602001604051908101604052809291908181526020018280546109ad906114c1565b80156109fa5780601f106109cf576101008083540402835291602001916109fa565b820191906000526020600020905b8154815290600101906020018083116109dd57829003601f168201915b505050505091509350935050509091565b60008054906101000a900473ffffffffffffffffffffffffffffffffffffffff1673ffffffffffffffffffffffffffffffffffffffff163373ffffffffffffffffffffffffffffffffffffffff1614610a99576040517f08c379a0000000000000000000000000000000000000000000000000000000008152600401610a90906112a6565b60405180910390fd5b60008060146101000a81548160ff021916908315150217905550565b6060600060018054905067ffffffffffffffff811115610afe577f4e487b7100000000000000000000000000000000000000000000000000000000600052604160045260246000fd5b604051908082528060200260200182016040528015610b3157816020015b6060815260200190600190039081610b1c5790505b50905060005b600180549050811015610c6f5760018181548110610b7e577f4e487b7100000000000000000000000000000000000000000000000000000000600052603260045260246000fd5b90600052602060002090600202016000018054610b9a906114c1565b80601f0160208091040260200160405190810160405280929190818152602001828054610bc6906114c1565b8015610c135780601f10610be857610100808354040283529160200191610c13565b820191906000526020600020905b815481529060010190602001808311610bf657829003601f168201915b5050505050828281518110610c51577f4e487b7100000000000000000000000000000000000000000000000000000000600052603260045260246000fd5b60200260200101819052508080610c67906114f3565b915050610b37565b508091505090565b828054610c83906114c1565b90600052602060002090601f016020900481019282610ca55760008555610cec565b82601f10610cbe57805160ff1916838001178555610cec565b82800160010185558215610cec579182015b82811115610ceb578251825591602001919060010190610cd0565b5b509050610cf99190610cfd565b5090565b5b80821115610d16576000816000905550600101610cfe565b5090565b6000610d2d610d2884611312565b6112e1565b905082815260208101848484011115610d4557600080fd5b610d5084828561147f565b509392505050565b600081359050610d67816115da565b92915050565b600082601f830112610d7e57600080fd5b8135610d8e848260208601610d1a565b91505092915050565b600081359050610da6816115f1565b92915050565b600060208284031215610dbe57600080fd5b6000610dcc84828501610d58565b91505092915050565b600060208284031215610de757600080fd5b600082013567ffffffffffffffff811115610e0157600080fd5b610e0d84828501610d6d565b91505092915050565b600060208284031215610e2857600080fd5b6000610e3684828501610d97565b91505092915050565b6000610e4b8383610f6f565b905092915050565b6000610e5f8383611121565b905092915050565b610e7081611437565b82525050565b6000610e8182611362565b610e8b818561139d565b935083602082028501610e9d85611342565b8060005b85811015610ed95784840389528151610eba8582610e3f565b9450610ec583611383565b925060208a01995050600181019050610ea1565b50829750879550505050505092915050565b6000610ef68261136d565b610f0081856113ae565b935083602082028501610f1285611352565b8060005b85811015610f4e5784840389528151610f2f8582610e53565b9450610f3a83611390565b925060208a01995050600181019050610f16565b50829750879550505050505092915050565b610f6981611449565b82525050565b6000610f7a82611378565b610f8481856113bf565b9350610f9481856020860161148e565b610f9d816115c9565b840191505092915050565b6000610fb382611378565b610fbd81856113d0565b9350610fcd81856020860161148e565b610fd6816115c9565b840191505092915050565b6000610fee600d836113d0565b91507f416c726561647920766f746564000000000000000000000000000000000000006000830152602082019050919050565b600061102e6011836113d0565b91507f496e76616c69642063616e6469646174650000000000000000000000000000006000830152602082019050919050565b600061106e6014836113d0565b91507f566f74696e67206973206e6f74206163746976650000000000000000000000006000830152602082019050919050565b60006110ae6013836113d0565b91507f566f74696e67207374696c6c20616374697665000000000000000000000000006000830152602082019050919050565b60006110ee6012836113d0565b91507f4e6f7420636f6e7472616374206f776e657200000000000000000000000000006000830152602082019050919050565b6000604083016000830151848203600086015261113e8282610f6f565b9150506020830151611153602086018261115e565b508091505092915050565b61116781611475565b82525050565b61117681611475565b82525050565b60006020820190506111916000830184610e67565b92915050565b600060208201905081810360008301526111b18184610e76565b905092915050565b600060208201905081810360008301526111d38184610eeb565b905092915050565b60006020820190506111f06000830184610f60565b92915050565b600060408201905081810360008301526112108185610fa8565b905061121f602083018461116d565b9392505050565b6000602082019050818103600083015261123f81610fe1565b9050919050565b6000602082019050818103600083015261125f81611021565b9050919050565b6000602082019050818103600083015261127f81611061565b9050919050565b6000602082019050818103600083015261129f816110a1565b9050919050565b600060208201905081810360008301526112bf816110e1565b9050919050565b60006020820190506112db600083018461116d565b92915050565b6000604051905081810181811067ffffffffffffffff821117156113085761130761159a565b5b8060405250919050565b600067ffffffffffffffff82111561132d5761132c61159a565b5b601f19601f8301169050602081019050919050565b6000819050602082019050919050565b6000819050602082019050919050565b600081519050919050565b600081519050919050565b600081519050919050565b6000602082019050919050565b6000602082019050919050565b600082825260208201905092915050565b600082825260208201905092915050565b600082825260208201905092915050565b600082825260208201905092915050565b60006113ec82611475565b91506113f783611475565b9250827fffffffffffffffffffffffffffffffffffffffffffffffffffffffffffffffff0382111561142c5761142b61153c565b5b828201905092915050565b600061144282611455565b9050919050565b60008115159050919050565b600073ffffffffffffffffffffffffffffffffffffffff82169050919050565b6000819050919050565b82818337600083830152505050565b60005b838110156114ac578082015181840152602081019050611491565b838111156114bb576000848401525b50505050565b600060028204905060018216806114d957607f821691505b602082108114156114ed576114ec61156b565b5b50919050565b60006114fe82611475565b91507fffffffffffffffffffffffffffffffffffffffffffffffffffffffffffffffff8214156115315761153061153c565b5b600182019050919050565b7f4e487b7100000000000000000000000000000000000000000000000000000000600052601160045260246000fd5b7f4e487b7100000000000000000000000000000000000000000000000000000000600052602260045260246000fd5b7f4e487b7100000000000000000000000000000000000000000000000000000000600052604160045260246000fd5b6000601f19601f8301169050919050565b6115e381611437565b81146115ee57600080fd5b50565b6115fa81611475565b811461160557600080fd5b5056fea2646970667358221220bd8d491929db2478850118d6c475f813df9541e9188c5e4830a28c5aea8db53164736f6c63430008000033",
					"opcodes": "PUSH1 0x80 PUSH1 0x40 MSTORE CALLVALUE DUP1 ISZERO PUSH2 0x10 JUMPI PUSH1 0x0 DUP1 REVERT JUMPDEST POP CALLER PUSH1 0x0 DUP1 PUSH2 0x100 EXP DUP2 SLOAD DUP2 PUSH20 0xFFFFFFFFFFFFFFFFFFFFFFFFFFFFFFFFFFFFFFFF MUL NOT AND SWAP1 DUP4 PUSH20 0xFFFFFFFFFFFFFFFFFFFFFFFFFFFFFFFFFFFFFFFF AND MUL OR SWAP1 SSTORE POP PUSH2 0x163E DUP1 PUSH2 0x60 PUSH1 0x0 CODECOPY PUSH1 0x0 RETURN INVALID PUSH1 0x80 PUSH1 0x40 MSTORE CALLVALUE DUP1 ISZERO PUSH2 0x10 JUMPI PUSH1 0x0 DUP1 REVERT JUMPDEST POP PUSH1 0x4 CALLDATASIZE LT PUSH2 0xB4 JUMPI PUSH1 0x0 CALLDATALOAD PUSH1 0xE0 SHR DUP1 PUSH4 0x408E2727 GT PUSH2 0x71 JUMPI DUP1 PUSH4 0x408E2727 EQ PUSH2 0x17C JUMPI DUP1 PUSH4 0x462E91EC EQ PUSH2 0x19A JUMPI DUP1 PUSH4 0x8DA5CB5B EQ PUSH2 0x1B6 JUMPI DUP1 PUSH4 0x8E7EA5B2 EQ PUSH2 0x1D4 JUMPI DUP1 PUSH4 0xC3403DDF EQ PUSH2 0x1F3 JUMPI DUP1 PUSH4 0xFDBC4006 EQ PUSH2 0x1FD JUMPI PUSH2 0xB4 JUMP JUMPDEST DUP1 PUSH4 0x121B93F EQ PUSH2 0xB9 JUMPI DUP1 PUSH4 0x6A49FCE EQ PUSH2 0xD5 JUMPI DUP1 PUSH4 0x9EEF43E EQ PUSH2 0xF3 JUMPI DUP1 PUSH4 0x1EC6B60A EQ PUSH2 0x123 JUMPI DUP1 PUSH4 0x30A56347 EQ PUSH2 0x12D JUMPI DUP1 PUSH4 0x3477EE2E EQ PUSH2 0x14B JUMPI JUMPDEST PUSH1 0x0 DUP1 REVERT JUMPDEST PUSH2 0xD3 PUSH1 0x4 DUP1 CALLDATASIZE SUB DUP2 ADD SWAP1 PUSH2 0xCE SWAP2 SWAP1 PUSH2 0xE16 JUMP JUMPDEST PUSH2 0x21B JUMP JUMPDEST STOP JUMPDEST PUSH2 0xDD PUSH2 0x3FB JUMP JUMPDEST PUSH1 0x40 MLOAD PUSH2 0xEA SWAP2 SWAP1 PUSH2 0x11B9 JUMP JUMPDEST PUSH1 0x40 MLOAD DUP1 SWAP2 SUB SWAP1 RETURN JUMPDEST PUSH2 0x10D PUSH1 0x4 DUP1 CALLDATASIZE SUB DUP2 ADD SWAP1 PUSH2 0x108 SWAP2 SWAP1 PUSH2 0xDAC JUMP JUMPDEST PUSH2 0x4F6 JUMP JUMPDEST PUSH1 0x40 MLOAD PUSH2 0x11A SWAP2 SWAP1 PUSH2 0x11DB JUMP JUMPDEST PUSH1 0x40 MLOAD DUP1 SWAP2 SUB SWAP1 RETURN JUMPDEST PUSH2 0x12B PUSH2 0x516 JUMP JUMPDEST STOP JUMPDEST PUSH2 0x135 PUSH2 0x5C1 JUMP JUMPDEST PUSH1 0x40 MLOAD PUSH2 0x142 SWAP2 SWAP1 PUSH2 0x12C6 JUMP JUMPDEST PUSH1 0x40 MLOAD DUP1 SWAP2 SUB SWAP1 RETURN JUMPDEST PUSH2 0x165 PUSH1 0x4 DUP1 CALLDATASIZE SUB DUP2 ADD SWAP1 PUSH2 0x160 SWAP2 SWAP1 PUSH2 0xE16 JUMP JUMPDEST PUSH2 0x5CE JUMP JUMPDEST PUSH1 0x40 MLOAD PUSH2 0x173 SWAP3 SWAP2 SWAP1 PUSH2 0x11F6 JUMP JUMPDEST PUSH1 0x40 MLOAD DUP1 SWAP2 SUB SWAP1 RETURN JUMPDEST PUSH2 0x184 PUSH2 0x68A JUMP JUMPDEST PUSH1 0x40 MLOAD PUSH2 0x191 SWAP2 SWAP1 PUSH2 0x11DB JUMP JUMPDEST PUSH1 0x40 MLOAD DUP1 SWAP2 SUB SWAP1 RETURN JUMPDEST PUSH2 0x1B4 PUSH1 0x4 DUP1 CALLDATASIZE SUB DUP2 ADD SWAP1 PUSH2 0x1AF SWAP2 SWAP1 PUSH2 0xDD5 JUMP JUMPDEST PUSH2 0x69D JUMP JUMPDEST STOP JUMPDEST PUSH2 0x1BE PUSH2 0x798 JUMP JUMPDEST PUSH1 0x40 MLOAD PUSH2 0x1CB SWAP2 SWAP1 PUSH2 0x117C JUMP JUMPDEST PUSH1 0x40 MLOAD DUP1 SWAP2 SUB SWAP1 RETURN JUMPDEST PUSH2 0x1DC PUSH2 0x7BC JUMP JUMPDEST PUSH1 0x40 MLOAD PUSH2 0x1EA SWAP3 SWAP2 SWAP1 PUSH2 0x11F6 JUMP JUMPDEST PUSH1 0x40 MLOAD DUP1 SWAP2 SUB SWAP1 RETURN JUMPDEST PUSH2 0x1FB PUSH2 0xA0B JUMP JUMPDEST STOP JUMPDEST PUSH2 0x205 PUSH2 0xAB5 JUMP JUMPDEST PUSH1 0x40 MLOAD PUSH2 0x212 SWAP2 SWAP1 PUSH2 0x1197 JUMP JUMPDEST PUSH1 0x40 MLOAD DUP1 SWAP2 SUB SWAP1 RETURN JUMPDEST PUSH1 0x0 PUSH1 0x14 SWAP1 SLOAD SWAP1 PUSH2 0x100 EXP SWAP1 DIV PUSH1 0xFF AND PUSH2 0x26A JUMPI PUSH1 0x40 MLOAD PUSH32 0x8C379A000000000000000000000000000000000000000000000000000000000 DUP2 MSTORE PUSH1 0x4 ADD PUSH2 0x261 SWAP1 PUSH2 0x1266 JUMP JUMPDEST PUSH1 0x40 MLOAD DUP1 SWAP2 SUB SWAP1 REVERT JUMPDEST PUSH1 0x2 PUSH1 0x0 CALLER PUSH20 0xFFFFFFFFFFFFFFFFFFFFFFFFFFFFFFFFFFFFFFFF AND PUSH20 0xFFFFFFFFFFFFFFFFFFFFFFFFFFFFFFFFFFFFFFFF AND DUP2 MSTORE PUSH1 0x20 ADD SWAP1 DUP2 MSTORE PUSH1 0x20 ADD PUSH1 0x0 KECCAK256 PUSH1 0x0 SWAP1 SLOAD SWAP1 PUSH2 0x100 EXP SWAP1 DIV PUSH1 0xFF AND ISZERO PUSH2 0x2F7 JUMPI PUSH1 0x40 MLOAD PUSH32 0x8C379A000000000000000000000000000000000000000000000000000000000 DUP2 MSTORE PUSH1 0x4 ADD PUSH2 0x2EE SWAP1 PUSH2 0x1226 JUMP JUMPDEST PUSH1 0x40 MLOAD DUP1 SWAP2 SUB SWAP1 REVERT JUMPDEST PUSH1 0x1 DUP1 SLOAD SWAP1 POP DUP2 LT PUSH2 0x33E JUMPI PUSH1 0x40 MLOAD PUSH32 0x8C379A000000000000000000000000000000000000000000000000000000000 DUP2 MSTORE PUSH1 0x4 ADD PUSH2 0x335 SWAP1 PUSH2 0x1246 JUMP JUMPDEST PUSH1 0x40 MLOAD DUP1 SWAP2 SUB SWAP1 REVERT JUMPDEST PUSH1 0x1 DUP1 DUP3 DUP2 SLOAD DUP2 LT PUSH2 0x379 JUMPI PUSH32 0x4E487B7100000000000000000000000000000000000000000000000000000000 PUSH1 0x0 MSTORE PUSH1 0x32 PUSH1 0x4 MSTORE PUSH1 0x24 PUSH1 0x0 REVERT JUMPDEST SWAP1 PUSH1 0x0 MSTORE PUSH1 0x20 PUSH1 0x0 KECCAK256 SWAP1 PUSH1 0x2 MUL ADD PUSH1 0x1 ADD PUSH1 0x0 DUP3 DUP3 SLOAD PUSH2 0x399 SWAP2 SWAP1 PUSH2 0x13E1 JUMP JUMPDEST SWAP3 POP POP DUP2 SWAP1 SSTORE POP PUSH1 0x1 PUSH1 0x2 PUSH1 0x0 CALLER PUSH20 0xFFFFFFFFFFFFFFFFFFFFFFFFFFFFFFFFFFFFFFFF AND PUSH20 0xFFFFFFFFFFFFFFFFFFFFFFFFFFFFFFFFFFFFFFFF AND DUP2 MSTORE PUSH1 0x20 ADD SWAP1 DUP2 MSTORE PUSH1 0x20 ADD PUSH1 0x0 KECCAK256 PUSH1 0x0 PUSH2 0x100 EXP DUP2 SLOAD DUP2 PUSH1 0xFF MUL NOT AND SWAP1 DUP4 ISZERO ISZERO MUL OR SWAP1 SSTORE POP POP JUMP JUMPDEST PUSH1 0x60 PUSH1 0x1 DUP1 SLOAD DUP1 PUSH1 0x20 MUL PUSH1 0x20 ADD PUSH1 0x40 MLOAD SWAP1 DUP2 ADD PUSH1 0x40 MSTORE DUP1 SWAP3 SWAP2 SWAP1 DUP2 DUP2 MSTORE PUSH1 0x20 ADD PUSH1 0x0 SWAP1 JUMPDEST DUP3 DUP3 LT ISZERO PUSH2 0x4ED JUMPI DUP4 DUP3 SWAP1 PUSH1 0x0 MSTORE PUSH1 0x20 PUSH1 0x0 KECCAK256 SWAP1 PUSH1 0x2 MUL ADD PUSH1 0x40 MLOAD DUP1 PUSH1 0x40 ADD PUSH1 0x40 MSTORE SWAP1 DUP2 PUSH1 0x0 DUP3 ADD DUP1 SLOAD PUSH2 0x452 SWAP1 PUSH2 0x14C1 JUMP JUMPDEST DUP1 PUSH1 0x1F ADD PUSH1 0x20 DUP1 SWAP2 DIV MUL PUSH1 0x20 ADD PUSH1 0x40 MLOAD SWAP1 DUP2 ADD PUSH1 0x40 MSTORE DUP1 SWAP3 SWAP2 SWAP1 DUP2 DUP2 MSTORE PUSH1 0x20 ADD DUP3 DUP1 SLOAD PUSH2 0x47E SWAP1 PUSH2 0x14C1 JUMP JUMPDEST DUP1 ISZERO PUSH2 0x4CB JUMPI DUP1 PUSH1 0x1F LT PUSH2 0x4A0 JUMPI PUSH2 0x100 DUP1 DUP4 SLOAD DIV MUL DUP4 MSTORE SWAP2 PUSH1 0x20 ADD SWAP2 PUSH2 0x4CB JUMP JUMPDEST DUP3 ADD SWAP2 SWAP1 PUSH1 0x0 MSTORE PUSH1 0x20 PUSH1 0x0 KECCAK256 SWAP1 JUMPDEST DUP2 SLOAD DUP2 MSTORE SWAP1 PUSH1 0x1 ADD SWAP1 PUSH1 0x20 ADD DUP1 DUP4 GT PUSH2 0x4AE JUMPI DUP3 SWAP1 SUB PUSH1 0x1F AND DUP3 ADD SWAP2 JUMPDEST POP POP POP POP POP DUP2 MSTORE PUSH1 0x20 ADD PUSH1 0x1 DUP3 ADD SLOAD DUP2 MSTORE POP POP DUP2 MSTORE PUSH1 0x20 ADD SWAP1 PUSH1 0x1 ADD SWAP1 PUSH2 0x41F JUMP JUMPDEST POP POP POP POP SWAP1 POP SWAP1 JUMP JUMPDEST PUSH1 0x2 PUSH1 0x20 MSTORE DUP1 PUSH1 0x0 MSTORE PUSH1 0x40 PUSH1 0x0 KECCAK256 PUSH1 0x0 SWAP2 POP SLOAD SWAP1 PUSH2 0x100 EXP SWAP1 DIV PUSH1 0xFF AND DUP2 JUMP JUMPDEST PUSH1 0x0 DUP1 SLOAD SWAP1 PUSH2 0x100 EXP SWAP1 DIV PUSH20 0xFFFFFFFFFFFFFFFFFFFFFFFFFFFFFFFFFFFFFFFF AND PUSH20 0xFFFFFFFFFFFFFFFFFFFFFFFFFFFFFFFFFFFFFFFF AND CALLER PUSH20 0xFFFFFFFFFFFFFFFFFFFFFFFFFFFFFFFFFFFFFFFF AND EQ PUSH2 0x5A4 JUMPI PUSH1 0x40 MLOAD PUSH32 0x8C379A000000000000000000000000000000000000000000000000000000000 DUP2 MSTORE PUSH1 0x4 ADD PUSH2 0x59B SWAP1 PUSH2 0x12A6 JUMP JUMPDEST PUSH1 0x40 MLOAD DUP1 SWAP2 SUB SWAP1 REVERT JUMPDEST PUSH1 0x1 PUSH1 0x0 PUSH1 0x14 PUSH2 0x100 EXP DUP2 SLOAD DUP2 PUSH1 0xFF MUL NOT AND SWAP1 DUP4 ISZERO ISZERO MUL OR SWAP1 SSTORE POP JUMP JUMPDEST PUSH1 0x0 PUSH1 0x1 DUP1 SLOAD SWAP1 POP SWAP1 POP SWAP1 JUMP JUMPDEST PUSH1 0x1 DUP2 DUP2 SLOAD DUP2 LT PUSH2 0x5DE JUMPI PUSH1 0x0 DUP1 REVERT JUMPDEST SWAP1 PUSH1 0x0 MSTORE PUSH1 0x20 PUSH1 0x0 KECCAK256 SWAP1 PUSH1 0x2 MUL ADD PUSH1 0x0 SWAP2 POP SWAP1 POP DUP1 PUSH1 0x0 ADD DUP1 SLOAD PUSH2 0x601 SWAP1 PUSH2 0x14C1 JUMP JUMPDEST DUP1 PUSH1 0x1F ADD PUSH1 0x20 DUP1 SWAP2 DIV MUL PUSH1 0x20 ADD PUSH1 0x40 MLOAD SWAP1 DUP2 ADD PUSH1 0x40 MSTORE DUP1 SWAP3 SWAP2 SWAP1 DUP2 DUP2 MSTORE PUSH1 0x20 ADD DUP3 DUP1 SLOAD PUSH2 0x62D SWAP1 PUSH2 0x14C1 JUMP JUMPDEST DUP1 ISZERO PUSH2 0x67A JUMPI DUP1 PUSH1 0x1F LT PUSH2 0x64F JUMPI PUSH2 0x100 DUP1 DUP4 SLOAD DIV MUL DUP4 MSTORE SWAP2 PUSH1 0x20 ADD SWAP2 PUSH2 0x67A JUMP JUMPDEST DUP3 ADD SWAP2 SWAP1 PUSH1 0x0 MSTORE PUSH1 0x20 PUSH1 0x0 KECCAK256 SWAP1 JUMPDEST DUP2 SLOAD DUP2 MSTORE SWAP1 PUSH1 0x1 ADD SWAP1 PUSH1 0x20 ADD DUP1 DUP4 GT PUSH2 0x65D JUMPI DUP3 SWAP1 SUB PUSH1 0x1F AND DUP3 ADD SWAP2 JUMPDEST POP POP POP POP POP SWAP1 DUP1 PUSH1 0x1 ADD SLOAD SWAP1 POP DUP3 JUMP JUMPDEST PUSH1 0x0 PUSH1 0x14 SWAP1 SLOAD SWAP1 PUSH2 0x100 EXP SWAP1 DIV PUSH1 0xFF AND DUP2 JUMP JUMPDEST PUSH1 0x0 DUP1 SLOAD SWAP1 PUSH2 0x100 EXP SWAP1 DIV PUSH20 0xFFFFFFFFFFFFFFFFFFFFFFFFFFFFFFFFFFFFFFFF AND PUSH20 0xFFFFFFFFFFFFFFFFFFFFFFFFFFFFFFFFFFFFFFFF AND CALLER PUSH20 0xFFFFFFFFFFFFFFFFFFFFFFFFFFFFFFFFFFFFFFFF AND EQ PUSH2 0x72B JUMPI PUSH1 0x40 MLOAD PUSH32 0x8C379A000000000000000000000000000000000000000000000000000000000 DUP2 MSTORE PUSH1 0x4 ADD PUSH2 0x722 SWAP1 PUSH2 0x12A6 JUMP JUMPDEST PUSH1 0x40 MLOAD DUP1 SWAP2 SUB SWAP1 REVERT JUMPDEST PUSH1 0x1 PUSH1 0x40 MLOAD DUP1 PUSH1 0x40 ADD PUSH1 0x40 MSTORE DUP1 DUP4 DUP2 MSTORE PUSH1 0x20 ADD PUSH1 0x0 DUP2 MSTORE POP SWAP1 DUP1 PUSH1 0x1 DUP2 SLOAD ADD DUP1 DUP3 SSTORE DUP1 SWAP2 POP POP PUSH1 0x1 SWAP1 SUB SWAP1 PUSH1 0x0 MSTORE PUSH1 0x20 PUSH1 0x0 KECCAK256 SWAP1 PUSH1 0x2 MUL ADD PUSH1 0x0 SWAP1 SWAP2 SWAP1 SWAP2 SWAP1 SWAP2 POP PUSH1 0x0 DUP3 ADD MLOAD DUP2 PUSH1 0x0 ADD SWAP1 DUP1 MLOAD SWAP1 PUSH1 0x20 ADD SWAP1 PUSH2 0x788 SWAP3 SWAP2 SWAP1 PUSH2 0xC77 JUMP JUMPDEST POP PUSH1 0x20 DUP3 ADD MLOAD DUP2 PUSH1 0x1 ADD SSTORE POP POP POP JUMP JUMPDEST PUSH1 0x0 DUP1 SLOAD SWAP1 PUSH2 0x100 EXP SWAP1 DIV PUSH20 0xFFFFFFFFFFFFFFFFFFFFFFFFFFFFFFFFFFFFFFFF AND DUP2 JUMP JUMPDEST PUSH1 0x60 PUSH1 0x0 DUP1 PUSH1 0x14 SWAP1 SLOAD SWAP1 PUSH2 0x100 EXP SWAP1 DIV PUSH1 0xFF AND ISZERO PUSH2 0x80F JUMPI PUSH1 0x40 MLOAD PUSH32 0x8C379A000000000000000000000000000000000000000000000000000000000 DUP2 MSTORE PUSH1 0x4 ADD PUSH2 0x806 SWAP1 PUSH2 0x1286 JUMP JUMPDEST PUSH1 0x40 MLOAD DUP1 SWAP2 SUB SWAP1 REVERT JUMPDEST PUSH1 0x0 DUP1 DUP1 PUSH1 0x0 SWAP1 POP JUMPDEST PUSH1 0x1 DUP1 SLOAD SWAP1 POP DUP2 LT ISZERO PUSH2 0x8DD JUMPI DUP3 PUSH1 0x1 DUP3 DUP2 SLOAD DUP2 LT PUSH2 0x860 JUMPI PUSH32 0x4E487B7100000000000000000000000000000000000000000000000000000000 PUSH1 0x0 MSTORE PUSH1 0x32 PUSH1 0x4 MSTORE PUSH1 0x24 PUSH1 0x0 REVERT JUMPDEST SWAP1 PUSH1 0x0 MSTORE PUSH1 0x20 PUSH1 0x0 KECCAK256 SWAP1 PUSH1 0x2 MUL ADD PUSH1 0x1 ADD SLOAD GT ISZERO PUSH2 0x8CA JUMPI PUSH1 0x1 DUP2 DUP2 SLOAD DUP2 LT PUSH2 0x8B2 JUMPI PUSH32 0x4E487B7100000000000000000000000000000000000000000000000000000000 PUSH1 0x0 MSTORE PUSH1 0x32 PUSH1 0x4 MSTORE PUSH1 0x24 PUSH1 0x0 REVERT JUMPDEST SWAP1 PUSH1 0x0 MSTORE PUSH1 0x20 PUSH1 0x0 KECCAK256 SWAP1 PUSH1 0x2 MUL ADD PUSH1 0x1 ADD SLOAD SWAP3 POP DUP1 SWAP2 POP JUMPDEST DUP1 DUP1 PUSH2 0x8D5 SWAP1 PUSH2 0x14F3 JUMP JUMPDEST SWAP2 POP POP PUSH2 0x818 JUMP JUMPDEST POP PUSH1 0x1 DUP2 DUP2 SLOAD DUP2 LT PUSH2 0x918 JUMPI PUSH32 0x4E487B7100000000000000000000000000000000000000000000000000000000 PUSH1 0x0 MSTORE PUSH1 0x32 PUSH1 0x4 MSTORE PUSH1 0x24 PUSH1 0x0 REVERT JUMPDEST SWAP1 PUSH1 0x0 MSTORE PUSH1 0x20 PUSH1 0x0 KECCAK256 SWAP1 PUSH1 0x2 MUL ADD PUSH1 0x0 ADD PUSH1 0x1 DUP3 DUP2 SLOAD DUP2 LT PUSH2 0x963 JUMPI PUSH32 0x4E487B7100000000000000000000000000000000000000000000000000000000 PUSH1 0x0 MSTORE PUSH1 0x32 PUSH1 0x4 MSTORE PUSH1 0x24 PUSH1 0x0 REVERT JUMPDEST SWAP1 PUSH1 0x0 MSTORE PUSH1 0x20 PUSH1 0x0 KECCAK256 SWAP1 PUSH1 0x2 MUL ADD PUSH1 0x1 ADD SLOAD DUP2 DUP1 SLOAD PUSH2 0x981 SWAP1 PUSH2 0x14C1 JUMP JUMPDEST DUP1 PUSH1 0x1F ADD PUSH1 0x20 DUP1 SWAP2 DIV MUL PUSH1 0x20 ADD PUSH1 0x40 MLOAD SWAP1 DUP2 ADD PUSH1 0x40 MSTORE DUP1 SWAP3 SWAP2 SWAP1 DUP2 DUP2 MSTORE PUSH1 0x20 ADD DUP3 DUP1 SLOAD PUSH2 0x9AD SWAP1 PUSH2 0x14C1 JUMP JUMPDEST DUP1 ISZERO PUSH2 0x9FA JUMPI DUP1 PUSH1 0x1F LT PUSH2 0x9CF JUMPI PUSH2 0x100 DUP1 DUP4 SLOAD DIV MUL DUP4 MSTORE SWAP2 PUSH1 0x20 ADD SWAP2 PUSH2 0x9FA JUMP JUMPDEST DUP3 ADD SWAP2 SWAP1 PUSH1 0x0 MSTORE PUSH1 0x20 PUSH1 0x0 KECCAK256 SWAP1 JUMPDEST DUP2 SLOAD DUP2 MSTORE SWAP1 PUSH1 0x1 ADD SWAP1 PUSH1 0x20 ADD DUP1 DUP4 GT PUSH2 0x9DD JUMPI DUP3 SWAP1 SUB PUSH1 0x1F AND DUP3 ADD SWAP2 JUMPDEST POP POP POP POP POP SWAP2 POP SWAP4 POP SWAP4 POP POP POP SWAP1 SWAP2 JUMP JUMPDEST PUSH1 0x0 DUP1 SLOAD SWAP1 PUSH2 0x100 EXP SWAP1 DIV PUSH20 0xFFFFFFFFFFFFFFFFFFFFFFFFFFFFFFFFFFFFFFFF AND PUSH20 0xFFFFFFFFFFFFFFFFFFFFFFFFFFFFFFFFFFFFFFFF AND CALLER PUSH20 0xFFFFFFFFFFFFFFFFFFFFFFFFFFFFFFFFFFFFFFFF AND EQ PUSH2 0xA99 JUMPI PUSH1 0x40 MLOAD PUSH32 0x8C379A000000000000000000000000000000000000000000000000000000000 DUP2 MSTORE PUSH1 0x4 ADD PUSH2 0xA90 SWAP1 PUSH2 0x12A6 JUMP JUMPDEST PUSH1 0x40 MLOAD DUP1 SWAP2 SUB SWAP1 REVERT JUMPDEST PUSH1 0x0 DUP1 PUSH1 0x14 PUSH2 0x100 EXP DUP2 SLOAD DUP2 PUSH1 0xFF MUL NOT AND SWAP1 DUP4 ISZERO ISZERO MUL OR SWAP1 SSTORE POP JUMP JUMPDEST PUSH1 0x60 PUSH1 0x0 PUSH1 0x1 DUP1 SLOAD SWAP1 POP PUSH8 0xFFFFFFFFFFFFFFFF DUP2 GT ISZERO PUSH2 0xAFE JUMPI PUSH32 0x4E487B7100000000000000000000000000000000000000000000000000000000 PUSH1 0x0 MSTORE PUSH1 0x41 PUSH1 0x4 MSTORE PUSH1 0x24 PUSH1 0x0 REVERT JUMPDEST PUSH1 0x40 MLOAD SWAP1 DUP1 DUP3 MSTORE DUP1 PUSH1 0x20 MUL PUSH1 0x20 ADD DUP3 ADD PUSH1 0x40 MSTORE DUP1 ISZERO PUSH2 0xB31 JUMPI DUP2 PUSH1 0x20 ADD JUMPDEST PUSH1 0x60 DUP2 MSTORE PUSH1 0x20 ADD SWAP1 PUSH1 0x1 SWAP1 SUB SWAP1 DUP2 PUSH2 0xB1C JUMPI SWAP1 POP JUMPDEST POP SWAP1 POP PUSH1 0x0 JUMPDEST PUSH1 0x1 DUP1 SLOAD SWAP1 POP DUP2 LT ISZERO PUSH2 0xC6F JUMPI PUSH1 0x1 DUP2 DUP2 SLOAD DUP2 LT PUSH2 0xB7E JUMPI PUSH32 0x4E487B7100000000000000000000000000000000000000000000000000000000 PUSH1 0x0 MSTORE PUSH1 0x32 PUSH1 0x4 MSTORE PUSH1 0x24 PUSH1 0x0 REVERT JUMPDEST SWAP1 PUSH1 0x0 MSTORE PUSH1 0x20 PUSH1 0x0 KECCAK256 SWAP1 PUSH1 0x2 MUL ADD PUSH1 0x0 ADD DUP1 SLOAD PUSH2 0xB9A SWAP1 PUSH2 0x14C1 JUMP JUMPDEST DUP1 PUSH1 0x1F ADD PUSH1 0x20 DUP1 SWAP2 DIV MUL PUSH1 0x20 ADD PUSH1 0x40 MLOAD SWAP1 DUP2 ADD PUSH1 0x40 MSTORE DUP1 SWAP3 SWAP2 SWAP1 DUP2 DUP2 MSTORE PUSH1 0x20 ADD DUP3 DUP1 SLOAD PUSH2 0xBC6 SWAP1 PUSH2 0x14C1 JUMP JUMPDEST DUP1 ISZERO PUSH2 0xC13 JUMPI DUP1 PUSH1 0x1F LT PUSH2 0xBE8 JUMPI PUSH2 0x100 DUP1 DUP4 SLOAD DIV MUL DUP4 MSTORE SWAP2 PUSH1 0x20 ADD SWAP2 PUSH2 0xC13 JUMP JUMPDEST DUP3 ADD SWAP2 SWAP1 PUSH1 0x0 MSTORE PUSH1 0x20 PUSH1 0x0 KECCAK256 SWAP1 JUMPDEST DUP2 SLOAD DUP2 MSTORE SWAP1 PUSH1 0x1 ADD SWAP1 PUSH1 0x20 ADD DUP1 DUP4 GT PUSH2 0xBF6 JUMPI DUP3 SWAP1 SUB PUSH1 0x1F AND DUP3 ADD SWAP2 JUMPDEST POP POP POP POP POP DUP3 DUP3 DUP2 MLOAD DUP2 LT PUSH2 0xC51 JUMPI PUSH32 0x4E487B7100000000000000000000000000000000000000000000000000000000 PUSH1 0x0 MSTORE PUSH1 0x32 PUSH1 0x4 MSTORE PUSH1 0x24 PUSH1 0x0 REVERT JUMPDEST PUSH1 0x20 MUL PUSH1 0x20 ADD ADD DUP2 SWAP1 MSTORE POP DUP1 DUP1 PUSH2 0xC67 SWAP1 PUSH2 0x14F3 JUMP JUMPDEST SWAP2 POP POP PUSH2 0xB37 JUMP JUMPDEST POP DUP1 SWAP2 POP POP SWAP1 JUMP JUMPDEST DUP3 DUP1 SLOAD PUSH2 0xC83 SWAP1 PUSH2 0x14C1 JUMP JUMPDEST SWAP1 PUSH1 0x0 MSTORE PUSH1 0x20 PUSH1 0x0 KECCAK256 SWAP1 PUSH1 0x1F ADD PUSH1 0x20 SWAP1 DIV DUP2 ADD SWAP3 DUP3 PUSH2 0xCA5 JUMPI PUSH1 0x0 DUP6 SSTORE PUSH2 0xCEC JUMP JUMPDEST DUP3 PUSH1 0x1F LT PUSH2 0xCBE JUMPI DUP1 MLOAD PUSH1 0xFF NOT AND DUP4 DUP1 ADD OR DUP6 SSTORE PUSH2 0xCEC JUMP JUMPDEST DUP3 DUP1 ADD PUSH1 0x1 ADD DUP6 SSTORE DUP3 ISZERO PUSH2 0xCEC JUMPI SWAP2 DUP3 ADD JUMPDEST DUP3 DUP2 GT ISZERO PUSH2 0xCEB JUMPI DUP3 MLOAD DUP3 SSTORE SWAP2 PUSH1 0x20 ADD SWAP2 SWAP1 PUSH1 0x1 ADD SWAP1 PUSH2 0xCD0 JUMP JUMPDEST JUMPDEST POP SWAP1 POP PUSH2 0xCF9 SWAP2 SWAP1 PUSH2 0xCFD JUMP JUMPDEST POP SWAP1 JUMP JUMPDEST JUMPDEST DUP1 DUP3 GT ISZERO PUSH2 0xD16 JUMPI PUSH1 0x0 DUP2 PUSH1 0x0 SWAP1 SSTORE POP PUSH1 0x1 ADD PUSH2 0xCFE JUMP JUMPDEST POP SWAP1 JUMP JUMPDEST PUSH1 0x0 PUSH2 0xD2D PUSH2 0xD28 DUP5 PUSH2 0x1312 JUMP JUMPDEST PUSH2 0x12E1 JUMP JUMPDEST SWAP1 POP DUP3 DUP2 MSTORE PUSH1 0x20 DUP2 ADD DUP5 DUP5 DUP5 ADD GT ISZERO PUSH2 0xD45 JUMPI PUSH1 0x0 DUP1 REVERT JUMPDEST PUSH2 0xD50 DUP5 DUP3 DUP6 PUSH2 0x147F JUMP JUMPDEST POP SWAP4 SWAP3 POP POP POP JUMP JUMPDEST PUSH1 0x0 DUP2 CALLDATALOAD SWAP1 POP PUSH2 0xD67 DUP2 PUSH2 0x15DA JUMP JUMPDEST SWAP3 SWAP2 POP POP JUMP JUMPDEST PUSH1 0x0 DUP3 PUSH1 0x1F DUP4 ADD SLT PUSH2 0xD7E JUMPI PUSH1 0x0 DUP1 REVERT JUMPDEST DUP2 CALLDATALOAD PUSH2 0xD8E DUP5 DUP3 PUSH1 0x20 DUP7 ADD PUSH2 0xD1A JUMP JUMPDEST SWAP2 POP POP SWAP3 SWAP2 POP POP JUMP JUMPDEST PUSH1 0x0 DUP2 CALLDATALOAD SWAP1 POP PUSH2 0xDA6 DUP2 PUSH2 0x15F1 JUMP JUMPDEST SWAP3 SWAP2 POP POP JUMP JUMPDEST PUSH1 0x0 PUSH1 0x20 DUP3 DUP5 SUB SLT ISZERO PUSH2 0xDBE JUMPI PUSH1 0x0 DUP1 REVERT JUMPDEST PUSH1 0x0 PUSH2 0xDCC DUP5 DUP3 DUP6 ADD PUSH2 0xD58 JUMP JUMPDEST SWAP2 POP POP SWAP3 SWAP2 POP POP JUMP JUMPDEST PUSH1 0x0 PUSH1 0x20 DUP3 DUP5 SUB SLT ISZERO PUSH2 0xDE7 JUMPI PUSH1 0x0 DUP1 REVERT JUMPDEST PUSH1 0x0 DUP3 ADD CALLDATALOAD PUSH8 0xFFFFFFFFFFFFFFFF DUP2 GT ISZERO PUSH2 0xE01 JUMPI PUSH1 0x0 DUP1 REVERT JUMPDEST PUSH2 0xE0D DUP5 DUP3 DUP6 ADD PUSH2 0xD6D JUMP JUMPDEST SWAP2 POP POP SWAP3 SWAP2 POP POP JUMP JUMPDEST PUSH1 0x0 PUSH1 0x20 DUP3 DUP5 SUB SLT ISZERO PUSH2 0xE28 JUMPI PUSH1 0x0 DUP1 REVERT JUMPDEST PUSH1 0x0 PUSH2 0xE36 DUP5 DUP3 DUP6 ADD PUSH2 0xD97 JUMP JUMPDEST SWAP2 POP POP SWAP3 SWAP2 POP POP JUMP JUMPDEST PUSH1 0x0 PUSH2 0xE4B DUP4 DUP4 PUSH2 0xF6F JUMP JUMPDEST SWAP1 POP SWAP3 SWAP2 POP POP JUMP JUMPDEST PUSH1 0x0 PUSH2 0xE5F DUP4 DUP4 PUSH2 0x1121 JUMP JUMPDEST SWAP1 POP SWAP3 SWAP2 POP POP JUMP JUMPDEST PUSH2 0xE70 DUP2 PUSH2 0x1437 JUMP JUMPDEST DUP3 MSTORE POP POP JUMP JUMPDEST PUSH1 0x0 PUSH2 0xE81 DUP3 PUSH2 0x1362 JUMP JUMPDEST PUSH2 0xE8B DUP2 DUP6 PUSH2 0x139D JUMP JUMPDEST SWAP4 POP DUP4 PUSH1 0x20 DUP3 MUL DUP6 ADD PUSH2 0xE9D DUP6 PUSH2 0x1342 JUMP JUMPDEST DUP1 PUSH1 0x0 JUMPDEST DUP6 DUP2 LT ISZERO PUSH2 0xED9 JUMPI DUP5 DUP5 SUB DUP10 MSTORE DUP2 MLOAD PUSH2 0xEBA DUP6 DUP3 PUSH2 0xE3F JUMP JUMPDEST SWAP5 POP PUSH2 0xEC5 DUP4 PUSH2 0x1383 JUMP JUMPDEST SWAP3 POP PUSH1 0x20 DUP11 ADD SWAP10 POP POP PUSH1 0x1 DUP2 ADD SWAP1 POP PUSH2 0xEA1 JUMP JUMPDEST POP DUP3 SWAP8 POP DUP8 SWAP6 POP POP POP POP POP POP SWAP3 SWAP2 POP POP JUMP JUMPDEST PUSH1 0x0 PUSH2 0xEF6 DUP3 PUSH2 0x136D JUMP JUMPDEST PUSH2 0xF00 DUP2 DUP6 PUSH2 0x13AE JUMP JUMPDEST SWAP4 POP DUP4 PUSH1 0x20 DUP3 MUL DUP6 ADD PUSH2 0xF12 DUP6 PUSH2 0x1352 JUMP JUMPDEST DUP1 PUSH1 0x0 JUMPDEST DUP6 DUP2 LT ISZERO PUSH2 0xF4E JUMPI DUP5 DUP5 SUB DUP10 MSTORE DUP2 MLOAD PUSH2 0xF2F DUP6 DUP3 PUSH2 0xE53 JUMP JUMPDEST SWAP5 POP PUSH2 0xF3A DUP4 PUSH2 0x1390 JUMP JUMPDEST SWAP3 POP PUSH1 0x20 DUP11 ADD SWAP10 POP POP PUSH1 0x1 DUP2 ADD SWAP1 POP PUSH2 0xF16 JUMP JUMPDEST POP DUP3 SWAP8 POP DUP8 SWAP6 POP POP POP POP POP POP SWAP3 SWAP2 POP POP JUMP JUMPDEST PUSH2 0xF69 DUP2 PUSH2 0x1449 JUMP JUMPDEST DUP3 MSTORE POP POP JUMP JUMPDEST PUSH1 0x0 PUSH2 0xF7A DUP3 PUSH2 0x1378 JUMP JUMPDEST PUSH2 0xF84 DUP2 DUP6 PUSH2 0x13BF JUMP JUMPDEST SWAP4 POP PUSH2 0xF94 DUP2 DUP6 PUSH1 0x20 DUP7 ADD PUSH2 0x148E JUMP JUMPDEST PUSH2 0xF9D DUP2 PUSH2 0x15C9 JUMP JUMPDEST DUP5 ADD SWAP2 POP POP SWAP3 SWAP2 POP POP JUMP JUMPDEST PUSH1 0x0 PUSH2 0xFB3 DUP3 PUSH2 0x1378 JUMP JUMPDEST PUSH2 0xFBD DUP2 DUP6 PUSH2 0x13D0 JUMP JUMPDEST SWAP4 POP PUSH2 0xFCD DUP2 DUP6 PUSH1 0x20 DUP7 ADD PUSH2 0x148E JUMP JUMPDEST PUSH2 0xFD6 DUP2 PUSH2 0x15C9 JUMP JUMPDEST DUP5 ADD SWAP2 POP POP SWAP3 SWAP2 POP POP JUMP JUMPDEST PUSH1 0x0 PUSH2 0xFEE PUSH1 0xD DUP4 PUSH2 0x13D0 JUMP JUMPDEST SWAP2 POP PUSH32 0x416C726561647920766F74656400000000000000000000000000000000000000 PUSH1 0x0 DUP4 ADD MSTORE PUSH1 0x20 DUP3 ADD SWAP1 POP SWAP2 SWAP1 POP JUMP JUMPDEST PUSH1 0x0 PUSH2 0x102E PUSH1 0x11 DUP4 PUSH2 0x13D0 JUMP JUMPDEST SWAP2 POP PUSH32 0x496E76616C69642063616E646964617465000000000000000000000000000000 PUSH1 0x0 DUP4 ADD MSTORE PUSH1 0x20 DUP3 ADD SWAP1 POP SWAP2 SWAP1 POP JUMP JUMPDEST PUSH1 0x0 PUSH2 0x106E PUSH1 0x14 DUP4 PUSH2 0x13D0 JUMP JUMPDEST SWAP2 POP PUSH32 0x566F74696E67206973206E6F7420616374697665000000000000000000000000 PUSH1 0x0 DUP4 ADD MSTORE PUSH1 0x20 DUP3 ADD SWAP1 POP SWAP2 SWAP1 POP JUMP JUMPDEST PUSH1 0x0 PUSH2 0x10AE PUSH1 0x13 DUP4 PUSH2 0x13D0 JUMP JUMPDEST SWAP2 POP PUSH32 0x566F74696E67207374696C6C2061637469766500000000000000000000000000 PUSH1 0x0 DUP4 ADD MSTORE PUSH1 0x20 DUP3 ADD SWAP1 POP SWAP2 SWAP1 POP JUMP JUMPDEST PUSH1 0x0 PUSH2 0x10EE PUSH1 0x12 DUP4 PUSH2 0x13D0 JUMP JUMPDEST SWAP2 POP PUSH32 0x4E6F7420636F6E7472616374206F776E65720000000000000000000000000000 PUSH1 0x0 DUP4 ADD MSTORE PUSH1 0x20 DUP3 ADD SWAP1 POP SWAP2 SWAP1 POP JUMP JUMPDEST PUSH1 0x0 PUSH1 0x40 DUP4 ADD PUSH1 0x0 DUP4 ADD MLOAD DUP5 DUP3 SUB PUSH1 0x0 DUP7 ADD MSTORE PUSH2 0x113E DUP3 DUP3 PUSH2 0xF6F JUMP JUMPDEST SWAP2 POP POP PUSH1 0x20 DUP4 ADD MLOAD PUSH2 0x1153 PUSH1 0x20 DUP7 ADD DUP3 PUSH2 0x115E JUMP JUMPDEST POP DUP1 SWAP2 POP POP SWAP3 SWAP2 POP POP JUMP JUMPDEST PUSH2 0x1167 DUP2 PUSH2 0x1475 JUMP JUMPDEST DUP3 MSTORE POP POP JUMP JUMPDEST PUSH2 0x1176 DUP2 PUSH2 0x1475 JUMP JUMPDEST DUP3 MSTORE POP POP JUMP JUMPDEST PUSH1 0x0 PUSH1 0x20 DUP3 ADD SWAP1 POP PUSH2 0x1191 PUSH1 0x0 DUP4 ADD DUP5 PUSH2 0xE67 JUMP JUMPDEST SWAP3 SWAP2 POP POP JUMP JUMPDEST PUSH1 0x0 PUSH1 0x20 DUP3 ADD SWAP1 POP DUP2 DUP2 SUB PUSH1 0x0 DUP4 ADD MSTORE PUSH2 0x11B1 DUP2 DUP5 PUSH2 0xE76 JUMP JUMPDEST SWAP1 POP SWAP3 SWAP2 POP POP JUMP JUMPDEST PUSH1 0x0 PUSH1 0x20 DUP3 ADD SWAP1 POP DUP2 DUP2 SUB PUSH1 0x0 DUP4 ADD MSTORE PUSH2 0x11D3 DUP2 DUP5 PUSH2 0xEEB JUMP JUMPDEST SWAP1 POP SWAP3 SWAP2 POP POP JUMP JUMPDEST PUSH1 0x0 PUSH1 0x20 DUP3 ADD SWAP1 POP PUSH2 0x11F0 PUSH1 0x0 DUP4 ADD DUP5 PUSH2 0xF60 JUMP JUMPDEST SWAP3 SWAP2 POP POP JUMP JUMPDEST PUSH1 0x0 PUSH1 0x40 DUP3 ADD SWAP1 POP DUP2 DUP2 SUB PUSH1 0x0 DUP4 ADD MSTORE PUSH2 0x1210 DUP2 DUP6 PUSH2 0xFA8 JUMP JUMPDEST SWAP1 POP PUSH2 0x121F PUSH1 0x20 DUP4 ADD DUP5 PUSH2 0x116D JUMP JUMPDEST SWAP4 SWAP3 POP POP POP JUMP JUMPDEST PUSH1 0x0 PUSH1 0x20 DUP3 ADD SWAP1 POP DUP2 DUP2 SUB PUSH1 0x0 DUP4 ADD MSTORE PUSH2 0x123F DUP2 PUSH2 0xFE1 JUMP JUMPDEST SWAP1 POP SWAP2 SWAP1 POP JUMP JUMPDEST PUSH1 0x0 PUSH1 0x20 DUP3 ADD SWAP1 POP DUP2 DUP2 SUB PUSH1 0x0 DUP4 ADD MSTORE PUSH2 0x125F DUP2 PUSH2 0x1021 JUMP JUMPDEST SWAP1 POP SWAP2 SWAP1 POP JUMP JUMPDEST PUSH1 0x0 PUSH1 0x20 DUP3 ADD SWAP1 POP DUP2 DUP2 SUB PUSH1 0x0 DUP4 ADD MSTORE PUSH2 0x127F DUP2 PUSH2 0x1061 JUMP JUMPDEST SWAP1 POP SWAP2 SWAP1 POP JUMP JUMPDEST PUSH1 0x0 PUSH1 0x20 DUP3 ADD SWAP1 POP DUP2 DUP2 SUB PUSH1 0x0 DUP4 ADD MSTORE PUSH2 0x129F DUP2 PUSH2 0x10A1 JUMP JUMPDEST SWAP1 POP SWAP2 SWAP1 POP JUMP JUMPDEST PUSH1 0x0 PUSH1 0x20 DUP3 ADD SWAP1 POP DUP2 DUP2 SUB PUSH1 0x0 DUP4 ADD MSTORE PUSH2 0x12BF DUP2 PUSH2 0x10E1 JUMP JUMPDEST SWAP1 POP SWAP2 SWAP1 POP JUMP JUMPDEST PUSH1 0x0 PUSH1 0x20 DUP3 ADD SWAP1 POP PUSH2 0x12DB PUSH1 0x0 DUP4 ADD DUP5 PUSH2 0x116D JUMP JUMPDEST SWAP3 SWAP2 POP POP JUMP JUMPDEST PUSH1 0x0 PUSH1 0x40 MLOAD SWAP1 POP DUP2 DUP2 ADD DUP2 DUP2 LT PUSH8 0xFFFFFFFFFFFFFFFF DUP3 GT OR ISZERO PUSH2 0x1308 JUMPI PUSH2 0x1307 PUSH2 0x159A JUMP JUMPDEST JUMPDEST DUP1 PUSH1 0x40 MSTORE POP SWAP2 SWAP1 POP JUMP JUMPDEST PUSH1 0x0 PUSH8 0xFFFFFFFFFFFFFFFF DUP3 GT ISZERO PUSH2 0x132D JUMPI PUSH2 0x132C PUSH2 0x159A JUMP JUMPDEST JUMPDEST PUSH1 0x1F NOT PUSH1 0x1F DUP4 ADD AND SWAP1 POP PUSH1 0x20 DUP2 ADD SWAP1 POP SWAP2 SWAP1 POP JUMP JUMPDEST PUSH1 0x0 DUP2 SWAP1 POP PUSH1 0x20 DUP3 ADD SWAP1 POP SWAP2 SWAP1 POP JUMP JUMPDEST PUSH1 0x0 DUP2 SWAP1 POP PUSH1 0x20 DUP3 ADD SWAP1 POP SWAP2 SWAP1 POP JUMP JUMPDEST PUSH1 0x0 DUP2 MLOAD SWAP1 POP SWAP2 SWAP1 POP JUMP JUMPDEST PUSH1 0x0 DUP2 MLOAD SWAP1 POP SWAP2 SWAP1 POP JUMP JUMPDEST PUSH1 0x0 DUP2 MLOAD SWAP1 POP SWAP2 SWAP1 POP JUMP JUMPDEST PUSH1 0x0 PUSH1 0x20 DUP3 ADD SWAP1 POP SWAP2 SWAP1 POP JUMP JUMPDEST PUSH1 0x0 PUSH1 0x20 DUP3 ADD SWAP1 POP SWAP2 SWAP1 POP JUMP JUMPDEST PUSH1 0x0 DUP3 DUP3 MSTORE PUSH1 0x20 DUP3 ADD SWAP1 POP SWAP3 SWAP2 POP POP JUMP JUMPDEST PUSH1 0x0 DUP3 DUP3 MSTORE PUSH1 0x20 DUP3 ADD SWAP1 POP SWAP3 SWAP2 POP POP JUMP JUMPDEST PUSH1 0x0 DUP3 DUP3 MSTORE PUSH1 0x20 DUP3 ADD SWAP1 POP SWAP3 SWAP2 POP POP JUMP JUMPDEST PUSH1 0x0 DUP3 DUP3 MSTORE PUSH1 0x20 DUP3 ADD SWAP1 POP SWAP3 SWAP2 POP POP JUMP JUMPDEST PUSH1 0x0 PUSH2 0x13EC DUP3 PUSH2 0x1475 JUMP JUMPDEST SWAP2 POP PUSH2 0x13F7 DUP4 PUSH2 0x1475 JUMP JUMPDEST SWAP3 POP DUP3 PUSH32 0xFFFFFFFFFFFFFFFFFFFFFFFFFFFFFFFFFFFFFFFFFFFFFFFFFFFFFFFFFFFFFFFF SUB DUP3 GT ISZERO PUSH2 0x142C JUMPI PUSH2 0x142B PUSH2 0x153C JUMP JUMPDEST JUMPDEST DUP3 DUP3 ADD SWAP1 POP SWAP3 SWAP2 POP POP JUMP JUMPDEST PUSH1 0x0 PUSH2 0x1442 DUP3 PUSH2 0x1455 JUMP JUMPDEST SWAP1 POP SWAP2 SWAP1 POP JUMP JUMPDEST PUSH1 0x0 DUP2 ISZERO ISZERO SWAP1 POP SWAP2 SWAP1 POP JUMP JUMPDEST PUSH1 0x0 PUSH20 0xFFFFFFFFFFFFFFFFFFFFFFFFFFFFFFFFFFFFFFFF DUP3 AND SWAP1 POP SWAP2 SWAP1 POP JUMP JUMPDEST PUSH1 0x0 DUP2 SWAP1 POP SWAP2 SWAP1 POP JUMP JUMPDEST DUP3 DUP2 DUP4 CALLDATACOPY PUSH1 0x0 DUP4 DUP4 ADD MSTORE POP POP POP JUMP JUMPDEST PUSH1 0x0 JUMPDEST DUP4 DUP2 LT ISZERO PUSH2 0x14AC JUMPI DUP1 DUP3 ADD MLOAD DUP2 DUP5 ADD MSTORE PUSH1 0x20 DUP2 ADD SWAP1 POP PUSH2 0x1491 JUMP JUMPDEST DUP4 DUP2 GT ISZERO PUSH2 0x14BB JUMPI PUSH1 0x0 DUP5 DUP5 ADD MSTORE JUMPDEST POP POP POP POP JUMP JUMPDEST PUSH1 0x0 PUSH1 0x2 DUP3 DIV SWAP1 POP PUSH1 0x1 DUP3 AND DUP1 PUSH2 0x14D9 JUMPI PUSH1 0x7F DUP3 AND SWAP2 POP JUMPDEST PUSH1 0x20 DUP3 LT DUP2 EQ ISZERO PUSH2 0x14ED JUMPI PUSH2 0x14EC PUSH2 0x156B JUMP JUMPDEST JUMPDEST POP SWAP2 SWAP1 POP JUMP JUMPDEST PUSH1 0x0 PUSH2 0x14FE DUP3 PUSH2 0x1475 JUMP JUMPDEST SWAP2 POP PUSH32 0xFFFFFFFFFFFFFFFFFFFFFFFFFFFFFFFFFFFFFFFFFFFFFFFFFFFFFFFFFFFFFFFF DUP3 EQ ISZERO PUSH2 0x1531 JUMPI PUSH2 0x1530 PUSH2 0x153C JUMP JUMPDEST JUMPDEST PUSH1 0x1 DUP3 ADD SWAP1 POP SWAP2 SWAP1 POP JUMP JUMPDEST PUSH32 0x4E487B7100000000000000000000000000000000000000000000000000000000 PUSH1 0x0 MSTORE PUSH1 0x11 PUSH1 0x4 MSTORE PUSH1 0x24 PUSH1 0x0 REVERT JUMPDEST PUSH32 0x4E487B7100000000000000000000000000000000000000000000000000000000 PUSH1 0x0 MSTORE PUSH1 0x22 PUSH1 0x4 MSTORE PUSH1 0x24 PUSH1 0x0 REVERT JUMPDEST PUSH32 0x4E487B7100000000000000000000000000000000000000000000000000000000 PUSH1 0x0 MSTORE PUSH1 0x41 PUSH1 0x4 MSTORE PUSH1 0x24 PUSH1 0x0 REVERT JUMPDEST PUSH1 0x0 PUSH1 0x1F NOT PUSH1 0x1F DUP4 ADD AND SWAP1 POP SWAP2 SWAP1 POP JUMP JUMPDEST PUSH2 0x15E3 DUP2 PUSH2 0x1437 JUMP JUMPDEST DUP2 EQ PUSH2 0x15EE JUMPI PUSH1 0x0 DUP1 REVERT JUMPDEST POP JUMP JUMPDEST PUSH2 0x15FA DUP2 PUSH2 0x1475 JUMP JUMPDEST DUP2 EQ PUSH2 0x1605 JUMPI PUSH1 0x0 DUP1 REVERT JUMPDEST POP JUMP INVALID LOG2 PUSH5 0x6970667358 0x22 SLT KECCAK256 0xBD DUP14 0x49 NOT 0x29 0xDB 0x24 PUSH25 0x850118D6C475F813DF9541E9188C5E4830A28C5AEA8DB53164 PUSH20 0x6F6C634300080000330000000000000000000000 "
				},
				"gasEstimates": {
					"creation": {
						"codeDepositCost": "1138800",
						"executionCost": "22046",
						"totalCost": "1160846"
					},
					"external": {
						"addCandidate(string)": "infinite",
						"candidates(uint256)": "infinite",
						"endVoting()": "22016",
						"getCandidateCount()": "1234",
						"getCandidateList()": "infinite",
						"getCandidates()": "infinite",
						"getWinner()": "infinite",
						"hasVoted(address)": "1590",
						"owner()": "1255",
						"startVoting()": "21995",
						"vote(uint256)": "infinite",
						"votingActive()": "1221"
					}
				},
				"methodIdentifiers": {
					"addCandidate(string)": "462e91ec",
					"candidates(uint256)": "3477ee2e",
					"endVoting()": "c3403ddf",
					"getCandidateCount()": "30a56347",
					"getCandidateList()": "fdbc4006",
					"getCandidates()": "06a49fce",
					"getWinner()": "8e7ea5b2",
					"hasVoted(address)": "09eef43e",
					"owner()": "8da5cb5b",
					"startVoting()": "1ec6b60a",
					"vote(uint256)": "0121b93f",
					"votingActive()": "408e2727"
				}
			},
			"storageLayout": {
				"storage": [
					{
						"astId": 3,
						"contract": "Project Candidate/Candidate.sol:Voting",
						"label": "owner",
						"offset": 0,
						"slot": "0",
						"type": "t_address"
					},
					{
						"astId": 5,
						"contract": "Project Candidate/Candidate.sol:Voting",
						"label": "votingActive",
						"offset": 20,
						"slot": "0",
						"type": "t_bool"
					},
					{
						"astId": 14,
						"contract": "Project Candidate/Candidate.sol:Voting",
						"label": "candidates",
						"offset": 0,
						"slot": "1",
						"type": "t_array(t_struct(Candidate)10_storage)dyn_storage"
					},
					{
						"astId": 18,
						"contract": "Project Candidate/Candidate.sol:Voting",
						"label": "hasVoted",
						"offset": 0,
						"slot": "2",
						"type": "t_mapping(t_address,t_bool)"
					}
				],
				"types": {
					"t_address": {
						"encoding": "inplace",
						"label": "address",
						"numberOfBytes": "20"
					},
					"t_array(t_struct(Candidate)10_storage)dyn_storage": {
						"base": "t_struct(Candidate)10_storage",
						"encoding": "dynamic_array",
						"label": "struct Voting.Candidate[]",
						"numberOfBytes": "32"
					},
					"t_bool": {
						"encoding": "inplace",
						"label": "bool",
						"numberOfBytes": "1"
					},
					"t_mapping(t_address,t_bool)": {
						"encoding": "mapping",
						"key": "t_address",
						"label": "mapping(address => bool)",
						"numberOfBytes": "32",
						"value": "t_bool"
					},
					"t_string_storage": {
						"encoding": "bytes",
						"label": "string",
						"numberOfBytes": "32"
					},
					"t_struct(Candidate)10_storage": {
						"encoding": "inplace",
						"label": "struct Voting.Candidate",
						"members": [
							{
								"astId": 7,
								"contract": "Project Candidate/Candidate.sol:Voting",
								"label": "name",
								"offset": 0,
								"slot": "0",
								"type": "t_string_storage"
							},
							{
								"astId": 9,
								"contract": "Project Candidate/Candidate.sol:Voting",
								"label": "voteCount",
								"offset": 0,
								"slot": "1",
								"type": "t_uint256"
							}
						],
						"numberOfBytes": "64"
					},
					"t_uint256": {
						"encoding": "inplace",
						"label": "uint256",
						"numberOfBytes": "32"
					}
				}
			},
			"userdoc": {
				"kind": "user",
				"methods": {},
				"version": 1
			}
		}
	}
}